:020000040000fa
:080000000002040000000000f2
:020000040000fa
:04000800fc020000f6
:020000040000fa
:04000c00fc020000f2
:020000040000fa
:04001000fc020000ee
:020000040000fa
:04001400fc020000ea
:020000040000fa
:04001800fc020000e6
:020000040000fa
:04001c00fc020000e2
:020000040000fa
:04002000fc020000de
:020000040000fa
:04002400fc020000da
:020000040000fa
:04002800fc020000d6
:020000040000fa
:04002c00fc020000d2
:020000040000fa
:04003000fc020000ce
:020000040000fa
:04003400cc020000fa
:020000040000fa
:04003800fc020000c6
:020000040000fa
:04003c00fc020000c2
:020000040000fa
:04004000fc020000be
:020000040000fa
:04004400fc020000ba
:020000040000fa
:04004800fc020000b6
:020000040000fa
:04004c00fc020000b2
:020000040000fa
:04005000fc020000ae
:020000040000fa
:04005400fc020000aa
:020000040000fa
:04005800fc020000a6
:020000040000fa
:04005c00fc020000a2
:020000040000fa
:04006000fc0200009e
:020000040000fa
:04006400fc0200009a
:020000040000fa
:04006800fc02000096
:020000040000fa
:04006c00fc02000092
:020000040000fa
:04007000fc0200008e
:020000040000fa
:04007400fc0200008a
:020000040000fa
:04007800fc02000086
:020000040000fa
:04007c00fc02000082
:020000040000fa
:04008000fc0200007e
:020000040000fa
:04008400fc0200007a
:020000040000fa
:04008800fc02000076
:020000040000fa
:04008c00fc02000072
:020000040000fa
:04009000fc0200006e
:020000040000fa
:04009400fc0200006a
:020000040000fa
:04009800fc02000066
:020000040000fa
:04009c00fc02000062
:020000040000fa
:0400a000fc0200005e
:020000040000fa
:0400a400fc0200005a
:020000040000fa
:0400a800fc02000056
:020000040000fa
:0400ac00fc02000052
:020000040000fa
:0400b000fc0200004e
:020000040000fa
:0400b400fc0200004a
:020000040000fa
:0400b800fc02000046
:020000040000fa
:0400bc00fc02000042
:020000040000fa
:0400c000fc0200003e
:020000040000fa
:0400c400fc0200003a
:020000040000fa
:0400c800fc02000036
:020000040000fa
:0400cc00fc02000032
:020000040000fa
:0400d000fc0200002e
:020000040000fa
:0400d400fc0200002a
:020000040000fa
:0400d800fc02000026
:020000040000fa
:0400dc00fc02000022
:020000040000fa
:0400e000fc0200001e
:020000040000fa
:0400e400fc0200001a
:020000040000fa
:0400e800fc02000016
:020000040000fa
:0400ec00fc02000012
:020000040000fa
:0400f000fc0200000e
:020000040000fa
:0400f400fc0200000a
:020000040000fa
:0400f800fc02000006
:020000040000fa
:0400fc00fc02000002
:020000040000fa
:04010000fc020000fd
:020000040000fa
:04010400fc020000f9
:020000040000fa
:04010800fc020000f5
:020000040000fa
:04010c00fc020000f1
:020000040000fa
:04011000fc020000ed
:020000040000fa
:04011400fc020000e9
:020000040000fa
:04011800fc020000e5
:020000040000fa
:04011c00fc020000e1
:020000040000fa
:04012000fc020000dd
:020000040000fa
:04012400fc020000d9
:020000040000fa
:04012800fc020000d5
:020000040000fa
:04012c00fc020000d1
:020000040000fa
:04013000fc020000cd
:020000040000fa
:04013400fc020000c9
:020000040000fa
:04013800fc020000c5
:020000040000fa
:04013c00fc020000c1
:020000040000fa
:04014000fc020000bd
:020000040000fa
:04014400fc020000b9
:020000040000fa
:04014800fc020000b5
:020000040000fa
:04014c00fc020000b1
:020000040000fa
:04015000fc020000ad
:020000040000fa
:04015400fc020000a9
:020000040000fa
:04015800fc020000a5
:020000040000fa
:04015c00fc020000a1
:020000040000fa
:04016000fc0200009d
:020000040000fa
:04016400fc02000099
:020000040000fa
:04020800fc020000f4
:020000040000fa
:04020c00fc020000f0
:020000040000fa
:04021000fc020000ec
:020000040000fa
:04021400fc020000e8
:020000040000fa
:04021800fc020000e4
:020000040000fa
:04021c00fc020000e0
:020000040000fa
:04022000fc020000dc
:020000040000fa
:04022400fc020000d8
:020000040000fa
:04022800fc020000d4
:020000040000fa
:04022c00fc020000d0
:020000040000fa
:04023000fc020000cc
:020000040000fa
:04023400cc020000f8
:020000040000fa
:04023800fc020000c4
:020000040000fa
:04023c00fc020000c0
:020000040000fa
:04024000fc020000bc
:020000040000fa
:04024400fc020000b8
:020000040000fa
:04024800fc020000b4
:020000040000fa
:04024c00fc020000b0
:020000040000fa
:04025000fc020000ac
:020000040000fa
:04025400fc020000a8
:020000040000fa
:04025800fc020000a4
:020000040000fa
:04025c00fc020000a0
:020000040000fa
:04026000fc0200009c
:020000040000fa
:04026400fc02000098
:020000040000fa
:04026800fc02000094
:020000040000fa
:04026c00fc02000090
:020000040000fa
:04027000fc0200008c
:020000040000fa
:04027400fc02000088
:020000040000fa
:04027800fc02000084
:020000040000fa
:04027c00fc02000080
:020000040000fa
:04028000fc0200007c
:020000040000fa
:04028400fc02000078
:020000040000fa
:04028800fc02000074
:020000040000fa
:04028c00fc02000070
:020000040000fa
:04029000fc0200006c
:020000040000fa
:04029400fc02000068
:020000040000fa
:04029800fc02000064
:020000040000fa
:04029c00fc02000060
:020000040000fa
:0402a000fc0200005c
:020000040000fa
:0402a400fc02000058
:020000040000fa
:0402a800fc02000054
:020000040000fa
:0402ac00fc02000050
:020000040000fa
:0402b000fc0200004c
:020000040000fa
:0402b400fc02000048
:020000040000fa
:0402b800fc02000044
:020000040000fa
:0402bc00fc02000040
:020000040000fa
:0402c000fc0200003c
:020000040000fa
:0402c400fc02000038
:020000040000fa
:0402c800fc02000034
:020000040000fa
:0402cc00fc02000030
:020000040000fa
:0402d000fc0200002c
:020000040000fa
:0402d400fc02000028
:020000040000fa
:0402d800fc02000024
:020000040000fa
:0402dc00fc02000020
:020000040000fa
:0402e000fc0200001c
:020000040000fa
:0402e400fc02000018
:020000040000fa
:0402e800fc02000014
:020000040000fa
:0402ec00fc02000010
:020000040000fa
:0402f000fc0200000c
:020000040000fa
:0402f400fc02000008
:020000040000fa
:0402f800fc02000004
:020000040000fa
:0402fc00fc02000000
:020000040000fa
:04030000fc020000fb
:020000040000fa
:04030400fc020000f7
:020000040000fa
:04030800fc020000f3
:020000040000fa
:04030c00fc020000ef
:020000040000fa
:04031000fc020000eb
:020000040000fa
:04031400fc020000e7
:020000040000fa
:04031800fc020000e3
:020000040000fa
:04031c00fc020000df
:020000040000fa
:04032000fc020000db
:020000040000fa
:04032400fc020000d7
:020000040000fa
:04032800fc020000d3
:020000040000fa
:04032c00fc020000cf
:020000040000fa
:04033000fc020000cb
:020000040000fa
:04033400fc020000c7
:020000040000fa
:04033800fc020000c3
:020000040000fa
:04033c00fc020000bf
:020000040000fa
:04034000fc020000bb
:020000040000fa
:04034400fc020000b7
:020000040000fa
:04034800fc020000b3
:020000040000fa
:04034c00fc020000af
:020000040000fa
:04035000fc020000ab
:020000040000fa
:04035400fc020000a7
:020000040000fa
:04035800fc020000a3
:020000040000fa
:04035c00fc0200009f
:020000040000fa
:04036000fc0200009b
:020000040000fa
:04036400fc02000097
:020000040000fa
:10040000efd020000e6f22000e01880000000000d7
:10041000000020000000e000020032000001200087
:100420002002880014000700750007000000e000ab
:1004300003003a000074220001002000020037008f
:100440000000200001002000810f70000100320038
:1004500014000700000020000000e000020032004d
:10046000000002000000000036240200000000002e
:100470000040da000000fe004440a90060022000b5
:100480000000e0000300320000002000a00188000e
:100490004440a800000006008a1f78008b1f7800e7
:1004a0000000060091018800800478000000eb0045
:1004b0001a003700e284440032a0b4009905ba0063
:1004c000e284440032a0b4009906ba00e2844400f9
:1004d00032a0b4000006eb00476fde00fd07b2005b
:1004e000636ce10003003a00ebff07000000eb0043
:1004f0000a003700606ce10004003a00005deb0088
:100500008b05e900fdff3e00040037006168e10053
:10051000010032000086eb000b00070019c7ba008b
:100520001905ba000e04e00003003a000a00e000da
:10053000e0ff3a0000000600fe07b2009e018800be
:100540008a047800f5ff3700395dba008b05e900b1
:100550000c003200295dba008b05e900080032006a
:100560000c00e00003003a00e284440032a0b40032
:10057000f5ff370019ddba008b05e900faff3a00f4
:100580008904e800e184440032a0b40000000600c1
:100590002c210400000000003600f800809fbe00ff
:1005a000829fbe00849fbe00869fbe003400f8007c
:1005b00000002000a00188000000fa008460a9006b
:1005c000b80d07000000e00003003200d42602004e
:1005d00000000000000000000080fa003400f90074
:1005e0004f03be004f02be004f01be004f00be00d1
:1005f0003600f900004006000040da000000fe006e
:10060000000005008001780002003700b159780031
:100610000201e9000200e000fcff3a0000000600d1
:020000040000fa
:100620001111000022220000333300004444000076
:100630005555000066660000777700008888000046
:1006400099990000aaaa0000bbbb0000cccc000016
:10065000dddd0000eeee0000cecd0000acab000012
:0c066000494400004c4500000000000070
:020000040000fa
:10066c000a00fa00004f7800110798002207980042
:10067c0033079800044f98007027a900c8a2a9005e
:10068c00d0a2a800103a8000000178000260a100fe
:10069c00600420007105200023742000804978003c
:1006ac00814978008249780021368000f00f2e00b5
:1006bc000080600000c0a00020368800a1358000ba
:1006cc0000fe2f00008060005001b300a0358800b0
:1006dc00103a8000000178000260a0006004200045
:1006ec00710520002374200080497800814978002e
:1006fc008249780001208000000e2000808060007c
:10070c0000082000808f500019003a009e009000d5
:10071c00808022008080600000208000010070003a
:10072c0000208800ae009000f00f200000806000d8
:10073c0080208800be009000f07f240000806000c4
:10074c00902088000e489000674060006740600071
:10075c00674060000080fb004d00dd00322080000f
:10076c00f1ff210081006100010070003020880041
:10077c003024ef003224ef003424ef003624ef0055
:10078c002024ef002224ef002824ef002a24ef007d
:10079c001424ef008860a9009e40780067c06000b8
:1007ac0067406000674060000080fb0067006000ed
:1007bc004c00dd00a2058000f1ff280081006100e3
:1007cc0001007000a00588001e4078000080fb002e
:1007dc004700de00004078000080fb0061006000f4
:1007ec004300dd00c10480000130a1000100700055
:1007fc00c00488009e80fb00000420000080600084
:10080c0000f0a7000000ea000000ea004f00de0044
:10081c00004078000080fb006100600061208000d7
:10082c000100a10001007000602088009e80fb0088
:10083c00000220000080600000f0a7000000ea0029
:10084c000000ea004f00de00004078000080fb0052
:10085c006100600000004000612080000110a100d8
:10086c0001007000602088000080fa000000060083
:10087c000400fa00004f78001147980022479800b6
:10088c009e4078006fcf60001e4090006340600077
:10089c00104798002e40900061406000204798005f
:1008ac001e80fb00e30f50004b003200e30f5000a2
:1008bc0007003c00e10f500021003200e10f500016
:1008cc0032003c000000e0000a003200a1003700ba
:1008dc00e50f500066003200e50f50005100350066
:1008ec00e60f500075003200e70f50008600320012
:1008fc00980037002e409000614060000080fb00a3
:10090c00610060004700dd00812180000170a100c2
:10091c0001007000802188001e4090006340600040
:10092c000080fb006300600082218000c1ff2f006b
:10093c008100610001007000802188008500370073
:10094c002e409000614060000080fb004f00dd00f5
:10095c008121800001f0a10001007000802188003d
:10096c001e409000634060000080fb00630060004c
:10097c004800dd0082218000f1cf2f008100610052
:10098c000100700080218800720037002e4090001a
:10099c00614060000080fb00610060004700dd00ea
:1009ac00912180000170a10001007000902188004d
:1009bc001e409000634060000080fb0063006000fc
:1009cc0092218000c1ff2f008100610001007000a6
:1009dc00902188005f0037002e409000614060003d
:1009ec000080fb004f00dd009121800001f0a10090
:1009fc0001007000902188001e4090006340600050
:100a0c000080fb00630060004800dd009221800044
:100a1c00f1cf2f008100610001007000902188004f
:100a2c004c0037002e409000614060000080fb00bd
:100a3c00610060004700dd00a12180000170a10071
:100a4c0001007000a02188001e40900063406000ef
:100a5c000080fb0063006000a2218000c1ff2f001a
:100a6c008100610001007000a0218800390037006e
:100a7c002e409000614060000080fb004f00dd00c4
:100a8c00a121800001f0a10001007000a0218800cc
:100a9c001e409000634060000080fb00630060001b
:100aac004800dd00a2218000f1cf2f008100610001
:100abc0001007000a0218800260037002e40900015
:100acc00614060000080fb00610060004700dd00b9
:100adc00b12180000170a10001007000b0218800dc
:100aec001e409000634060000080fb0063006000cb
:100afc00b2218000c1ff2f00810061000100700055
:100b0c00b0218800130037002e4090006140600037
:100b1c000080fb004f00dd00b121800001f0a1003e
:100b2c0001007000b02188001e40900063406000fe
:100b3c000080fb00630060004800dd00b2218000f3
:100b4c00f1cf2f008100610001007000b0218800fe
:100b5c00000000000080fa00000006000200fa000d
:100b6c00004f7800114798001e40900063406000d1
:100b7c00104798009e4078006fcf600001208000e5
:100b8c00000e20008080600000082000808f500044
:100b9c00c6003a000004a8001e80fb00cf80de00d7
:100bac00f200200003002000820f5000838f5800b9
:100bbc00bd003e00006001000f0037001800370038
:100bcc00220037002c003700360037004000370079
:100bdc004a003700540037005d00370066003700cc
:100bec00700037007a003700840037008e00370021
:100bfc0098003700a20037001e4090006340600050
:100c0c000080fb0063006000c2208000c1ff2f0049
:100c1c008100610001007000c0208800a200370034
:100c2c001e409000634060000080fb006300600089
:100c3c004200dd00c220800031ff2f0081006100e6
:100c4c0001007000c0208800970037001e40900003
:100c5c00634060000080fb00630060004400dd0026
:100c6c00c2208000f1fc2f008100610001007000a7
:100c7c00c02088008c0037001e409000634060004c
:100c8c000080fb00630060004600dd00c220800095
:100c9c00f1f32f008100610001007000c02088007a
:100cac00810037001e409000634060000080fb0014
:100cbc00630060004800dd00c2208000f1cf2f00ef
:100ccc008100610001007000c020880076003700b0
:100cdc001e409000634060000080fb0063006000d9
:100cec004a00dd00c2208000f13f2f00810061002e
:100cfc0001007000c02088006b0037001e4090007f
:100d0c00634060000080fb00630060004c00dd006d
:100d1c00c2208000f1ff2c008100610001007000f6
:100d2c00c0208800600037001e40900063406000c7
:100d3c000080fb004e00dd00c2208000f1ff23008c
:100d4c008100610001007000c0208800560037004f
:100d5c001e409000634060000080fb006300600058
:100d6c00d2208000c1ff2f008100610001007000c3
:100d7c00d02088004c0037001e409000634060007b
:100d8c000080fb00630060004200dd00d220800088
:100d9c0031ff2f008100610001007000d02088001d
:100dac00410037001e409000634060000080fb0053
:100dbc00630060004400dd00d2208000f1fc2f00b5
:100dcc008100610001007000d020880036003700df
:100ddc001e409000634060000080fb0063006000d8
:100dec004600dd00d2208000f1f32f00810061006d
:100dfc0001007000d02088002b0037001e409000ae
:100e0c00634060000080fb00630060004800dd0070
:100e1c00d2208000f1cf2f00810061000100700012
:100e2c00d0208800200037001e40900063406000f6
:100e3c000080fb00630060004a00dd00d2208000cf
:100e4c00f13f2f008100610001007000d02088006c
:100e5c00150037001e409000634060000080fb00ce
:100e6c00630060004c00dd00d2208000f1ff2c00fc
:100e7c008100610001007000d02088000a0037005a
:100e8c001e409000634060000080fb004e00dd00bf
:100e9c00d2208000f1ff230081006100010070006e
:100eac00d0208800000000000004a9000080fa0097
:100ebc00000006000400fa00004f780011079800ab
:100ecc009e40780063cf600001208000000e20005f
:100edc008080600000082000808f50001e003a00c7
:100eec000004a8001e80fb00e10f50000b00320034
:100efc00e20f5000100032000000e00015003a0034
:100f0c001e0090004500dd008021880080218000bb
:100f1c000030a000802188000e0037001e009000d9
:100f2c004500dd00a0218800a02180000030a00039
:100f3c00a0218800070037001e0090004500dd004e
:100f4c00c0218800a02180000030a000c0218800b2
:100f5c00000000000004a9000080fa000000060058
:100f6c000400fa00004f7800110798009e407800aa
:100f7c006fcf600001208000000e20008080600098
:100f8c0000082000808f50009a003a000004a8004e
:100f9c001e80fb00cf80de00f2002000030020004a
:100fac00820f5000838f580091003e0000600100ba
:100fbc000f003700160037001d00370024003700e3
:100fcc002b00370032003700390037004000370063
:100fdc00470037004e003700550037005c003700e3
:100fec00630037006a003700710037007800370063
:100ffc001e0090004500dd000022880000228000c9
:10100c000030a100002288001404a80078003700ea
:10101c001e0090004500dd00202288002022800068
:10102c000030a100202288001424a8007000370092
:10103c001e0090004500dd00402288004022800008
:10104c000030a100402288001444a800680037003a
:10105c001e0090004500dd006022880060228000a8
:10106c000030a100602288001464a80060003700e2
:10107c001e0090004500dd00802288008022800048
:10108c000030a100802288001484a800580037008a
:10109c001e0090004500dd00a0228800a0228000e8
:1010ac000030a100a022880014a4a8005000370032
:1010bc001e0090004500dd00c0228800e022800068
:1010cc000030a100c022880014c4a80048003700da
:1010dc001e0090004500dd00e0228800e022800028
:1010ec000030a100e022880014e4a8004000370082
:1010fc001e0090004500dd000023880000238000c6
:10110c000030a100002388001504a8003800370027
:10111c001e0090004500dd00202388002023800065
:10112c000030a100202388001524a80030003700cf
:10113c001e0090004500dd00402388004023800005
:10114c000030a100402388001544a8002800370077
:10115c001e0090004500dd006023880060238000a5
:10116c000030a100602388001564a800200037001f
:10117c001e0090004500dd00802388008023800045
:10118c000030a100802388001584a80018003700c7
:10119c001e0090004500dd00a0238800a0238000e5
:1011ac000030a100a023880015a4a800100037006f
:1011bc001e0090004500dd00c0238800c023800085
:1011cc000030a100c023880015c4a8000800370017
:1011dc001e0090004500dd00e0238800e023800025
:1011ec000030a100e023880015e4a80000000000f6
:1011fc000004a9000080fa00000006000600fa00b6
:10120c00004f780012079800230798009e40780042
:10121c0063cf600001208000000e20008080600001
:10122c0000082000808f50003f003a000004a80006
:10123c001e80fb00e10f500016003200e20f500040
:10124c00260032000000e00036003a000e80e80074
:10125c006400400010007800902188000e80e800a7
:10126c0090007800c0ff210000806000c300dd000a
:10127c000e80e80010007800630060000100700030
:10128c0080218800802180000030a000802188000f
:10129c00240037000e80e800640040001000780045
:1012ac00b02188000e80e80090007800c0ff21007b
:1012bc0000806000c300dd000e80e80010007800a4
:1012cc006300600001007000a0218800a021800054
:1012dc000030a000a0218800120037000e80e8002a
:1012ec006400400010007800d02188000e80e800d7
:1012fc0090007800c0ff210000806000c300dd007a
:10130c000e80e8001000780063006000010070009f
:10131c00c0218800c02180000030a000c0218800be
:10132c00000000000004a9000080fa000000060084
:10133c000600fa00004f7800120798002307980067
:10134c009e4078006fcf600001208000000e2000ce
:10135c008080600000082000808f50004a013a0015
:10136c000004a8001e80fb00cf80de00f2002000ed
:10137c0003002000820f5000838f580041013e0073
:10138c00006001000f0037002100370033003700e8
:10139c004500370057003700690037007b003700e5
:1013ac008d0037009f003700b1003700c3003700b5
:1013bc00d5003700e7003700f90037000b01370084
:1013cc001d0137000e80e80064004000100078001a
:1013dc00102288000e80e80090007800c0ff2100e9
:1013ec0000806000c300dd000e80e8001000780073
:1013fc006300600001007000002288000022800061
:10140c000030a000002288001404a8001d01370041
:10141c000e80e80064004000100078003022880044
:10142c000e80e80090007800c0ff21000080600072
:10143c00c300dd000e80e80010007800630060003f
:10144c000100700020228800202280000030a000c3
:10145c00202288001424a8000a0137000e80e8001e
:10146c006400400010007800502288000e80e800d4
:10147c0090007800c0ff210000806000c300dd00f8
:10148c000e80e8001000780063006000010070001e
:10149c0040228800402280000030a00040228800ba
:1014ac001444a800f70037000e80e80064004000e8
:1014bc0010007800702288000e80e8009000780000
:1014cc00c0ff210000806000c300dd000e80e8003a
:1014dc00100078006300600001007000602288003a
:1014ec00602280000030a000602288001464a800f4
:1014fc00e40037000e80e800640040001000780023
:10150c00902288000e80e80090007800c0ff210037
:10151c0000806000c300dd000e80e8001000780041
:10152c00630060000100700080228800802280002f
:10153c000030a000802288001484a800d10037005d
:10154c000e80e8006400400010007800b022880093
:10155c000e80e80090007800c0ff21000080600041
:10156c00c300dd000e80e80010007800630060000e
:10157c0001007000a0228800a02280000030a00092
:10158c00a022880014a4a800be0037000e80e8003a
:10159c006400400010007800d02288000e80e80023
:1015ac0090007800c0ff210000806000c300dd00c7
:1015bc000e80e800100078006300600001007000ed
:1015cc00c0228800c02280000030a000c022880009
:1015dc0014c4a800ab0037000e80e8006400400083
:1015ec0010007800f02288000e80e800900078004f
:1015fc00c0ff210000806000c300dd000e80e80009
:10160c00100078006300600001007000e022880088
:10161c00e02280000030a000e022880014e4a80042
:10162c00980037000e80e80064004000100078003d
:10163c00102388000e80e80090007800c0ff210085
:10164c0000806000c300dd000e80e8001000780010
:10165c0063006000010070000023880000238000fc
:10166c000030a000002388001504a8008500370076
:10167c000e80e800640040001000780030238800e1
:10168c000e80e80090007800c0ff21000080600010
:10169c00c300dd000e80e8001000780063006000dd
:1016ac000100700020238800202380000030a0005f
:1016bc00202388001524a800720037000e80e80053
:1016cc006400400010007800502388000e80e80071
:1016dc0090007800c0ff210000806000c300dd0096
:1016ec000e80e800100078006300600001007000bc
:1016fc0040238800402380000030a0004023880055
:10170c001544a8005f0037000e80e800640040001c
:10171c0010007800702388000e80e800900078009c
:10172c00c0ff210000806000c300dd000e80e800d7
:10173c0010007800630060000100700060238800d6
:10174c00602380000030a000602388001564a8008e
:10175c004c0037000e80e800640040001000780058
:10176c00902388000e80e80090007800c0ff2100d4
:10177c0000806000c300dd000e80e80010007800df
:10178c0063006000010070008023880080238000cb
:10179c000030a000802388001584a8003900370091
:1017ac000e80e8006400400010007800b023880030
:1017bc000e80e80090007800c0ff210000806000df
:1017cc00c300dd000e80e8001000780063006000ac
:1017dc0001007000a0238800a02380000030a0002e
:1017ec00a023880015a4a800260037000e80e8006e
:1017fc006400400010007800d02388000e80e800c0
:10180c0090007800c0ff210000806000c300dd0064
:10181c000e80e8001000780063006000010070008a
:10182c00c0238800c02380000030a000c0238800a3
:10183c0015c4a800130037000e80e80064004000b7
:10184c0010007800f02388000e80e80090007800eb
:10185c00c0ff210000806000c300dd000e80e800a6
:10186c00100078006300600001007000e023880025
:10187c00e02380000030a000e023880015e4a800dd
:10188c00000000000004a9000080fa00000006001f
:10189c000200fa00004f7800114798001e4090009b
:1018ac006f406000104798009e4078006fcf60003a
:1018bc0001208000000e20008080600000082000c5
:1018cc00808f5000c2003a000004a8001e80fb006c
:1018dc00cf80de00f200200003002000820f5000b9
:1018ec00838f5800b9003e00006001000f003700e4
:1018fc0018003700220037002c0037003500370065
:10190c003e00370048003700520037005b003700bc
:10191c00640037006e003700780037008100370014
:10192c008a003700940037009e0037001e4090005c
:10193c006f4060000080fb006f006000022180009f
:10194c0001ff2f0081006100010070000021880060
:10195c009e0037001e4090006f4060000080fb002e
:10196c006f0060004400dd0002218000f1f02f00c8
:10197c008100610001007000002188009300370095
:10198c001e4090006f4060000080fb006f00600004
:10199c004800dd0002218000f10f2f008100610062
:1019ac000100700000218800880037001e40900064
:1019bc006f4060000080fb004c00dd0002218000c5
:1019cc00f1ff2000810061000100700000218800ff
:1019dc007e0037001e4090006f4060000080fb00ce
:1019ec006f0060001221800001ff2f008100610058
:1019fc000100700010218800740037001e40900018
:101a0c006f4060000080fb006f0060004400dd0050
:101a1c0012218000f1f02f008100610001007000a4
:101a2c0010218800690037001e4090006f40600054
:101a3c000080fb006f0060004800dd001221800078
:101a4c00f10f2f008100610001007000102188004f
:101a5c005e0037001e4090006f4060000080fb006d
:101a6c004c00dd0012218000f1ff2000810061009c
:101a7c000100700010218800540037001e409000b7
:101a8c006f4060000080fb006f006000222180002e
:101a9c0001ff2f00810061000100700020218800ef
:101aac004a0037001e4090006f4060000080fb0031
:101abc006f0060004400dd0022218000f1f02f0057
:101acc008100610001007000202188003f00370078
:101adc001e4090006f4060000080fb006f006000b3
:101aec004800dd0022218000f10f2f0081006100f1
:101afc000100700020218800340037001e40900047
:101b0c006f4060000080fb004c00dd002221800053
:101b1c00f1ff20008100610001007000202188008d
:101b2c002a0037001e4090006f4060000080fb00d0
:101b3c006f0060003221800001ff2f0081006100e6
:101b4c000100700030218800200037001e409000fa
:101b5c006f4060000080fb006f0060004400dd00ff
:101b6c0032218000f1f02f00810061000100700033
:101b7c0030218800150037001e4090006f40600037
:101b8c000080fb006f0060004800dd003221800007
:101b9c00f10f2f00810061000100700030218800de
:101bac000a0037001e4090006f4060000080fb0070
:101bbc004c00dd0032218000f1ff2000810061002b
:101bcc000100700030218800000000000004a90012
:101bdc000080fa00000006000200fa00004f7800b6
:101bec001e4078000004e00002003a003064a800b7
:101bfc00220037001e407800e14f500002003a00ee
:101c0c003164a8001d0037001e407800e24f5000e0
:101c1c0002003a003264a800180037001e40780019
:101c2c00e34f500002003a003364a8001300370061
:101c3c001e407800e44f500002003a003464a800c3
:101c4c000e0037001e407800e54f500002003a00ad
:101c5c003564a800090037001e407800e64f50009c
:101c6c0002003a003664a800040037001e407800d9
:101c7c00e74f500001003a003764a8000080fa00da
:101c8c00000006000400fa00204798000000eb005a
:101c9c00000f78002e4090006f40600020479800a5
:101cac002e409000674060000080fb0067006000e1
:101cbc004800dd0002208000f18f2f0081006100c0
:101ccc00010070000020880080022000010020002c
:101cdc005a0c0700002080004500de0067406000c1
:101cec008080fb002e4090000080fb00808f500015
:101cfc000900320010c0b300713e20001e017800b4
:101d0c00810f5100010036000040eb001e0fe8006f
:101d1c000004e000e2ff3a0010c0b300813e200056
:101d2c001e017800810f510001003e000040eb00c5
:101d3c000080fa00000006000200fa000040eb00f0
:101d4c00004f780000218000610060000000e0007e
:101d5c00040032002004a9000040eb00004f780082
:101d6c003a00370000218000620060000000e000b3
:101d7c00040032002024a90010c0b300004f7800ea
:101d8c003200370000218000640060000000e00099
:101d9c00040032002044a90020c0b300004f78009a
:101dac002a00370000218000680060000000e0007d
:101dbc00040032002064a90030c0b300004f78004a
:101dcc002200370000218000700060000000e0005d
:101ddc00040032002084a90040c0b300004f7800fa
:101dec001a003700012180000002200000806000f2
:101dfc000000e0000400320020a4a90050c0b30091
:101e0c00004f7800110037000121800000042000f1
:101e1c00008060000000e0000400320020c4a90033
:101e2c0060c0b300004f780008003700012180002b
:101e3c0000082000008060000000e0000300320079
:101e4c0020e4a90070c0b300004f78001e40780059
:101e5c000080fa00000006000e00fa0060079800ef
:101e6c006000b800008fbe006000b800200798002a
:101e7c00310798006000b80040079800510798009f
:101e8c006e00900060489000e24f500047003a000e
:101e9c006e0090001001be0000002000c1ff210068
:101eac0002027800030178008001780001007800bc
:101ebc0003026200000061008000eb00c000dd0046
:101ecc00000020000001be006120b800000171007c
:101edc00818171004018de0001002000008fbe00df
:101eec0032002000030020001e0f41005e974900c5
:101efc006e0090001001be0000fc2f00310020008d
:101f0c00020278000301780080017800010078005b
:101f1c0003026200000061008000eb00c000dd00e5
:101f2c00000020000001be006120b800000171001b
:101f3c00818171004a1add004610de00000072003b
:101f4c00c618de0020079800310798006e0090003c
:101f5c001000be004a09dd00c601de0083017100dd
:101f6c004a01dd00f0ff2f00010020000202780082
:101f7c000301780080017800010078000302620000
:101f8c00000061008000eb00c000dd0000002000bc
:101f9c000001be006120b800000171008181710058
:101fac0042079800530798001a0037006e00900003
:101fbc0060489000e14f500016003a006e0090000f
:101fcc001001be00f07f200001002000020278000a
:101fdc0003017800800178000100780003026200a0
:101fec00000061008000eb00c000dd00000020005c
:101ffc000001be006120b8000001710081817100f8
:10200c004218dd00ce10de00810070004210dd00b1
:10201c00008fbe006e00900050489000e44f5000be
:10202c0024003a006e00900060489000e24f50008f
:10203c0006003a004e009000de0090000090a000d8
:10204c004007980051079800010037001e10a000af
:10205c006e009000704890000080fb009e0078009d
:10206c004401dd00007022000000410001087800ee
:10207c006e009000704890000080fb00ae00900055
:10208c004401dd00207022000000410001087800ae
:10209c006e009000704890000080fb00ce00900015
:1020ac004401dd004070220000004100010878006e
:1020bc00810037006e009000404090000081fb00d2
:1020cc008001eb00f00020000100200002027800eb
:1020dc00030178008001780001007800030262009f
:1020ec00000061008000eb00c000dd00000020005b
:1020fc000001be006120b8000001710081817100f7
:10210c004e009000de0090000000410081804900ec
:10211c0040079800510798006e009000704890009e
:10212c000080fb009e0078004401dd00007022005e
:10213c0000004100010878006e009000704890008b
:10214c000080fb00ae0090004401dd0020702200f6
:10215c0000004100010878006e009000704890006b
:10216c000080fb00ce0090004401dd004070220096
:10217c000000410001087800017022006e00900000
:10218c00704890000080fb004400dd0066004000b9
:10219c0000804000ee009000d14090000148780093
:1021ac00017022006e009000704890000080fb00cf
:1021bc004400dd006700400000804000ee0090000d
:1021cc00e140900001487800017022006e00900000
:1021dc00704890000080fb004400dd006800400067
:1021ec0000804000ee009000f14090000148780023
:1021fc00017022006e009000704890000080fb007f
:10220c004400dd006900400000804000ee009000ba
:10221c008148900001487800017022006e00900007
:10222c00704890000080fb004400dd006a00400014
:10223c0000804000ee00900091489000014878002a
:10224c00017022006e009000704890000080fb002e
:10225c004400dd006b00400000804000ee00900068
:10226c00a148900001487800017022006e00900097
:10227c00704890000080fb004400dd006c004000c2
:10228c0000804000ee009000b148900001487800ba
:10229c00017022006e009000704890000080fb00de
:1022ac004400dd006d00400000804000ee00900016
:1022bc00c1489000014878006e0090007048900072
:1022cc0045fe07000080fa00000006000600fa0038
:1022dc00200798006000b800008fbe0096fe070033
:1022ec00ae009000f04898002e00900070489000ce
:1022fc000080fb00c400dd00007022000080400064
:10230c001000780061006000004078000004e000dc
:10231c00550032002e009000704890000080fb00a9
:10232c00c400dd0000702200008040001000780026
:10233c006101b800c0ff21000100200002027800fa
:10234c00830178000001780001007800020162002e
:10235c00008061008000eb00c000dd000000200068
:10236c00008fbe006110b8001e1f70001e97700019
:10237c001e00be00c000dd00000020002e019000f9
:10238c000089be002e009000704890000080fb0079
:10239c004400dd008080e8000070220000804000d6
:1023ac00100078006101b800f0ff2000010020004f
:1023bc0002027800830178000001780001007800a7
:1023cc0002016200008061008000eb00c000dd00b3
:1023dc0000002000008fbe006110b8001e1f7000ae
:1023ec001e9770002e0090001001be001e02be0051
:1023fc004628dd00ca20de00810070004620dd008a
:10240c0002004000838048002e0190000089be002d
:10241c002e009000704890000080fb004400dd000e
:10242c00e4004000007022000080400010007800a2
:10243c004a00de008000eb00008fbe002e009000f2
:10244c001000be003e014000ae8148000200be00fc
:10245c002e0190000089be002e00900021c0b30018
:10246c0061489800100037002e00900070489000d2
:10247c000080fb00c400dd000070220000804000e2
:10248c0090007800c0ff2100008060004200de0058
:10249c008000eb002e0190000089be002e00900001
:1024ac0011c0b300614898002e0090007048900055
:1024bc000080fb00c400dd000070220000804000a2
:1024cc0010007800620060000000e00004003200a0
:1024dc002e00900041c0b300514898005d003700b9
:1024ec002e00900031c0b3005148980001702200ba
:1024fc002e009000704890000080fb004400dd002e
:10250c006400400000804000904078002e00900055
:10251c0041409800017022002e00900070489000fd
:10252c000080fb004400dd0066004000008040009d
:10253c00904078002e0090005140980001702200cd
:10254c002e009000704890000080fb004400dd00dd
:10255c006700400000804000904078002e00900002
:10256c0061409800017022002e009000704890008d
:10257c000080fb004400dd0068004000008040004b
:10258c00904078002e00900071409800017022005d
:10259c002e009000704890000080fb004400dd008d
:1025ac006900400000804000904078002e009000b0
:1025bc0001489800017022002e0090007048900095
:1025cc000080fb004400dd006a00400000804000f9
:1025dc00904078002e009000114898000170220065
:1025ec002e009000704890000080fb004400dd003d
:1025fc006b00400000804000904078002e0090005e
:10260c0021489800017022002e0090007048900024
:10261c000080fb004400dd006c00400000804000a6
:10262c00904078002e0090003148980001702200f4
:10263c002e009000704890000080fb004400dd00ec
:10264c006d00400000804000904078002e0090000b
:10265c00414898000080fa00000006000600fa00cd
:10266c0010079800210798009e009000010f780039
:10267c00600807001e007800100178001e0078002a
:10268c00f00890001e007800001090000088b9003f
:10269c0000007800800041001e00780021009800a6
:1026ac001e0078008000eb00610898001e00780086
:1026bc00900078001e007800110098001e00780031
:1026cc00100178001e007800700890008000e9006e
:1026dc001e007800001090000088b90000007800ff
:1026ec00800041001e007800310098001e00780028
:1026fc0080c0eb00216098001e00780080c0eb00c9
:10270c00316098002e0090000000e0000d003a00af
:10271c001e007800400090000000e0000f00320026
:10272c009e007800688040001b0607000000e00057
:10273c000a003200d4260200000000000000000055
:10274c00060037009e007800688040001f070700d5
:10275c009e007800728040001c07070032080700ba
:10276c00100020000080fa00000006000c00fa00a7
:10277c003007980041079800224f9800be00900047
:10278c004e0090000088b90000007800000f78001f
:10279c00410220001e8040000f090700100798001e
:1027ac001e0090000000e0000b0032009e00900024
:1027bc00210798002e0090004002b00020079800de
:1027cc001e029000ae4990002e019000ce009000a9
:1027dc003e009000030007001e0090000080fa00ed
:1027ec00000006000a00fa00000f7800110798009c
:1027fc002207980063479800440798001e00900039
:10280c000000e00004003a00ce0090004e00900062
:10281c000108780003003700ae0090004e009000d5
:10282c00010878004e0090009e0078007108980016
:10283c004e0090009e0090000110980011002000a6
:10284c004e00900085ff07000080fa000000060093
:10285c001200fa0050079800610798007207980060
:10286c00030f98000000eb00000f7800de009000d2
:10287c00110798000100370000000000dd07070079
:10288c001e009000e00890001e0090007008900060
:10289c00808f5000030039000e089000e20f5000aa
:1028ac001b003a000e099000ee0090001e009000f4
:1028bc0089020700200798001e0090001008900065
:1028cc000000e000090032001e0090007200400081
:1028dc00b10507000000e0000a003200d426020017
:1028ec000000000000000000060037002e009000e1
:1028fc000000e00003003200d426020000000000bb
:10290c0000000000c8070700100020003d00370041
:10291c007e0090000000e00003003a00c2070700b0
:10292c000000eb00370037001e0078000000e000cc
:10293c0004003a006600470004060700100020005f
:10294c00000f7800b807070049040700a907070023
:10295c001e00900020609000e14f400003003a0000
:10296c001e0090008040eb00216098001e0090003b
:10297c0030609000e14f400003003a001e009000d0
:10298c008040eb0031609800a7070700ee0047007d
:10299c0066004700f70507000000e00015003a004c
:1029ac001e009000190307000000e0000d0032002b
:1029bc00fe0090001e0090006800400057050700c4
:1029cc001e009000b90207002f0407000000e00071
:1029dc00a9ff3a00d426020000000000000000000d
:1029ec00a6ff37001e009000b00207002604070067
:1029fc00a2ff37001e009000ac0207002204070063
:102a0c000000eb000080fa00000006001200fa0043
:102a1c00500798006107980072079800030f980000
:102a2c00de009000110798000000eb0020079800d2
:102a3c001e009000e00890001e00900070089000ae
:102a4c00808f5000030039000e089000e20f5000f8
:102a5c0025003a001e009000b0609000614798007d
:102a6c001e009000e0089000410798000e099000ad
:102a7c00ee0090001e009000170207006e409000c0
:102a8c00e14f400010003a001e009000100890002a
:102a9c000000e000110032001e00900072004000a7
:102aac003d0507000000e0000c0032007e009000a5
:102abc000000e000090032007e00900011002000b0
:102acc0001087800050037006e4090000040e800d7
:102adc00804078001e0090003160980010002000ab
:102aec00000f7800020037000000eb00000f7800a8
:102afc001e0078000080fa00000006000e00fa00ac
:102b0c005007980061079800de00900011079800ac
:102b1c000000eb00200798001e009000e0089000d9
:102b2c00310798001e009000f00890003e009000c5
:102b3c00808f5000220036001e009000b060900084
:102b4c00014f98003e0090008000e8001e009000ad
:102b5c00610898000e489000e14f400010003a00c8
:102b6c001e009000100890000000e00011003200e0
:102b7c001e00900072004000070507000000e000f6
:102b8c000c0032006e0090000000e00009003200e2
:102b9c006e0090001100200001087800050037003d
:102bac000e4890000040e800804078001e00900025
:102bbc003160980010002000000f780002003700f0
:102bcc000000eb00000f78001e0078000080fa0077
:102bdc00000006001000fa005007980061079800ea
:102bec00720798000000eb00000f7800de009000e8
:102bfc0011079800030037000000000001003700a7
:102c0c0000000000fb0607001e009000e00890008a
:102c1c00210798002e0090000000e0001600320002
:102c2c00ee0090001e009000fe0107002e009000a8
:102c3c008000e9001e009000610898001e009000c2
:102c4c00400090000000e000080032001e009000e0
:102c5c0068004000d00407000000e00003003200d0
:102c6c00d42602000000000000000000ee06070061
:102c7c0010002000410037007e0090000000e000b2
:102c8c0003003a00e80607000000eb003b003700a9
:102c9c001e0078000000e00004003a0066004700c7
:102cac002a05070010002000000f7800de06070040
:102cbc006f030700cf0607001e00900020609000f5
:102ccc00e14f400003003a001e0090008040eb00f2
:102cdc00216098001e00900030609000e14f400091
:102cec0003003a001e0090008040eb003160980019
:102cfc00cd060700ee004700660047001d050700e3
:102d0c000000e00015003a001e0090001f020700b2
:102d1c000000e0000d003200fe0090001e0090004c
:102d2c00720040007d0407001e009000df010700c8
:102d3c00550307000000e000afff3a00d426020064
:102d4c000000000000000000aeff37001e009000e5
:102d5c00d60107004c030700aaff37001e009000a5
:102d6c00d2010700480307001e009000070207006d
:102d7c000000e000a2ff32000000eb000080fa002f
:102d8c00000006000e00fa0050079800610798003a
:102d9c000000eb00000f7800de0090001107980097
:102dac0003003700000000000100370000000000a5
:102dbc00900607001e009000e00890002107980084
:102dcc002e0090000000e000130032002e00900056
:102ddc008000e9001e009000610898001e00900021
:102dec00400090000000e000080032001e0090003f
:102dfc0068004000680407000000e0000300320097
:102e0c00d426020000000000000000008606070027
:102e1c0010002000410037006e0090000000e00020
:102e2c0003003a00800607000000eb003b0037006f
:102e3c001e0078000000e00004003a006600470025
:102e4c00c204070010002000000f7800760607006f
:102e5c0007030700670607001e0090002060900023
:102e6c00e14f400003003a001e0090008040eb0050
:102e7c00216098001e00900030609000e14f4000ef
:102e8c0003003a001e0090008040eb003160980077
:102e9c0065060700ec00470066004700b504070014
:102eac000000e00015003a001e009000b70107007a
:102ebc000000e0000d003200ee0090001e009000bb
:102ecc0072004000150407001e00900077010700f7
:102edc00ed0207000000e000b2ff3a00d426020029
:102eec000000000000000000b1ff37001e00900041
:102efc006e010700e4020700adff37001e009000d2
:102f0c006a010700e00207001e0090009f01070005
:102f1c000000e000a5ff32000000eb000080fa008a
:102f2c00000006001200fa00600798007107980074
:102f3c00020f98000000eb00000f7800ee009000ec
:102f4c001107980003003700000000000100370053
:102f5c0000000000270607001e009000e00890000b
:102f6c00210798002e0090000000e00018003200ad
:102f7c001e009000b000900031079800fe009000f9
:102f8c001e009000270107001e009000be0090005c
:102f9c00310098001e009000100890000000e00026
:102fac00080032001e00900072004000fa03070077
:102fbc000000e00003003200d426020000000000f4
:102fcc000000000018060700100020004100370028
:102fdc000e0890000000e00003003a001206070003
:102fec000000eb003b0037001e0078000000e00002
:102ffc0004003a0068004700540407001000200049
:10300c00000f78000806070099020700f905070071
:10301c001e00900020609000e14f400003003a0039
:10302c001e0090008040eb00216098001e00900074
:10303c0030609000e14f400003003a001e00900009
:10304c008040eb0031609800f7050700f000470066
:10305c0068004700470407000000e00015003a0034
:10306c001e009000490107000000e0000d00320036
:10307c008e0890001e00900072004000a70307000d
:10308c001e009000090107007f0207000000e0000d
:10309c00adff3a00d4260200000000000000000042
:1030ac00acff37001e0090000001070076020700fd
:1030bc00a8ff37001e009000fc00070072020700fa
:1030cc001e009000310107000000e000a0ff32005c
:1030dc000000eb000080fa00000006001000fa006f
:1030ec00500798006107980072079800de00900066
:1030fc00110798000000eb00200798001e009000bc
:10310c00e0089000310798003e0090000000e000bd
:10311c00250032001e009000a0609000014f980026
:10312c00ee0090001e009000be0007003e009000d4
:10313c008000e9001e009000610898000e48900085
:10314c00e14f400010003a001e009000400090003b
:10315c000000e000110032001e00900068004000ea
:10316c008d0307000000e0000c0032007e00900090
:10317c000000e000090032007e00900011002000e9
:10318c0001087800050037000e4890000040e80068
:10319c00804078001e0090002160980010002000f4
:1031ac00000f7800020037000000eb00000f7800e1
:1031bc001e0078000080fa00000006000c00fa00e7
:1031cc004007980051079800ce0090001107980016
:1031dc000000eb00200798001e0090006008900093
:1031ec000000e0000c0032001e009000b0009000c7
:1031fc0031079800de0090001e0090008900070047
:10320c001e009000be0090003100980010002000bd
:10321c00000f7800020037000000eb00000f780070
:10322c001e0078000080fa00000006000400fa007e
:10323c00100798006f0507001e009000e008900032
:10324c00010f7800780507001e0078000080fa0056
:10325c00000006000600fa0020079800ae0090005f
:10326c00010f7800630507001e007800f00890003d
:10327c001e00780060089000008050001007980035
:10328c00690507001e0090000080fa00000006008f
:10329c000600fa0020079800ae009000010f78009d
:1032ac001e007800e0089000110798001e009000a6
:1032bc000080fa00000006000400fa0010079800d5
:1032cc009e009000010f78001e0078006d0607002c
:1032dc000080fa00000006000a00fa00200798009f
:1032ec0031079800420798000000eb001007980087
:1032fc002e009000e0089000010f78002e00900046
:10330c00001090000000e000400032004e009000e1
:10331c000000e00019003a002e0090008010900090
:10332c002e0090001000900001017800be0090006b
:10333c00b1f407002e009000900090002e00900039
:10334c0000109000808040002e009000110098002a
:10335c002e009000900090002e0090002000900015
:10336c00808f5000290039002e00900090007800ca
:10337c002e00900011009800240037002e009000c1
:10338c00801090002e009000300090000101780019
:10339c00be00900098f407002e009000b000900042
:1033ac002e009000001090000000ea008080400089
:1033bc002e009000310098002e009000b00090007c
:1033cc002e00900010007800808f50000800310013
:1033dc002e009000a00090002e0090000010900095
:1033ec000000ea00808040002e0090003100980020
:1033fc004e009000e20f500004003a001e007800ce
:10340c000000e000010032001e0fe9009e00e80001
:10341c002e009000610898001e0090000080fa00b9
:10342c00000006000400fa00000f78001107980055
:10343c001e007800001090000000e000190032001f
:10344c001e007800b00090001e0078000010900064
:10345c00808040001e007800310098001e0078002b
:10346c00b00090001e00780020009000808f50006b
:10347c00040039001e007800900078001e007800cf
:10348c00310098001e007800801090001e0078001b
:10349c003000900001017800800078001e00900040
:1034ac0055f407000080fa00000006000400fa0042
:1034bc0010079800cf0407001e009000b060900029
:1034cc00014f78000b0037001e0090001008900090
:1034dc000000e0000b0032001e0090007200400063
:1034ec00ad0207000000e0000100320052030700ab
:1034fc001e4fe9001e4078000004e000f2ff3c0083
:10350c0001003700000000001e00900080c0eb009e
:10351c0031609800c4040700b60407001e00900038
:10352c00a0609000114798000d0037001e0090001d
:10353c00400090000000e0000d0032001e009000e2
:10354c0068004000940207000000e0000100320017
:10355c00390307001e4090000040e9001047980016
:10356c001e4090000004e000f0ff3c00010037001a
:10357c00000000001e00900080c0eb00216098004d
:10358c00a90407000080fa00000006000400fa00fd
:10359c0010079800970407001e0090006008900028
:1035ac000000e00003003a0010002000000f78003b
:1035bc00020037000000eb00000f78009a040700af
:1035cc001e0078000080fa00000006000600fa00d9
:1035dc0020079800ae009000110798001e00900084
:1035ec00600890000000e00003003a00100020008a
:1035fc00000f7800020037000000eb00000f78008d
:10360c001e0078000080fa00000006000400fa009a
:10361c0010079800770407001e009000e008900047
:10362c001e00900070089000808f500003003a003c
:10363c0010002000000f7800020037000000eb00a3
:10364c00000f7800780407001e0078000080fa0054
:10365c00000006000600fa0020079800ae0090005b
:10366c00110798001e009000e00890001e009000ca
:10367c0070089000808f500003003a00100020006a
:10368c00000f7800020037000000eb00000f7800fc
:10369c001e0078000080fa00000006001000fa00fe
:1036ac0020079800310798004207980053079800ac
:1036bc006407980075079800400220004605070033
:1036cc00000f78001e0078000000e0000e003200b1
:1036dc004e009000000040003f050700800078007d
:1036ec001e007800410898001e00780040089000e9
:1036fc000000e00004003a001e007800610507009d
:10370c000000eb00000f78001e0078000000e000c5
:10371c00120032004e0090008000eb000001eb0024
:10372c00821f78009e0378007e039000ee029000ca
:10373c005e0290000001be00be0090002e009000c2
:10374c000b0007008f87e9001e007800630007005c
:10375c001000200010079800020037000080eb00da
:10376c00100798001e0090000080fa000000060070
:10377c001400fa00200798003107980042079800bf
:10378c00530798006407980075079800060f980077
:10379c00170f98001e089000c008900011079800a1
:1037ac001e089000c00890004e019000f0ff27000a
:1037bc000000410000004000808040001e08900086
:1037cc00111098003e0090000000e000190032003b
:1037dc000000eb00000f78000d0037003e00900059
:1037ec001e004000904078001e0890001e00400013
:1037fc007a004000014878003e0090001e00400016
:10380c00104078000004e000050032001e0fe800b4
:10381c001e007800e70f5000f0ff36000100370063
:10382c00000000001e0890008040eb001160980022
:10383c00030037001e0890008040eb0021589800d0
:10384c007e009000e20f50000200360020002000a5
:10385c00700798001e089000fe0090003108980038
:10386c001e0890000080e800f10207001e0890007e
:10387c006c004000ee0207001e0890009e089000ad
:10388c00410098007e009000e30010001e0890009c
:10389c00610098001e0890009e0890001108980086
:1038ac006e019000ae0090001e0090005b030700bc
:1038bc00800078001e089000010878000e08900027
:1038cc000000e000030032000e0890009e089000fb
:1038dc00010878000080fa00000006000200fa00df
:1038ec00000f7800c3030700b06780000000e800f9
:1038fc00b0678800a06580000000e00007003a0077
:10390c009e007800a1658800b0678000e10f500030
:10391c000d003a00510207000b003700e0678000f1
:10392c000000e00008003a00a0658000b00890009c
:10393c001e00780030089000808f500002003e007e
:10394c009e007800a1658800206880000000e800d7
:10395c00206888001e007800b0089000d0678000b6
:10396c00808f5000030036001e0078003008900055
:10397c00d06788001e81e8001e0078003008900097
:10398c006a00b9008000780060cb20000080400005
:10399c0082007800ad020700a3030700e0678000f7
:1039ac000000e00009003200a0658000b008900023
:1039bc001e00780030089000808f5000030031000a
:1039cc00d426020000000000000000000080fa0075
:1039dc00000006000200fa0085d020000002eb0077
:1039ec008001eb000204200001332800c0122200e9
:1039fc002aff0700000f78001e007800e10f50002e
:103a0c000d003a0011028000f0f12f0000806000e0
:103a1c000050a00010028800000000000000000010
:103a2c000080eb003068880010002000e067880000
:103a3c00f82cef00410307000080fa00000006009c
:103a4c000000fa0011028000f0f12f0000806000ed
:103a5c000050a000100288000000000000000000d0
:103a6c00fc2cef004c0307000080fa00000006005d
:103a7c000000fa00506880000000e80050688800e0
:103a8c000080fa00000006000600fa000000eb00bf
:103a9c00000f78000000eb0010079800550307009a
:103aac00506880000000e900506888005068800071
:103abc000000e00045003a00b06780000000e00024
:103acc0042003200210037009067800030009000e7
:103adc00000f78009e0078006c804000ab0207005d
:103aec001e80e800a90207001e007800b0089000b4
:103afc00d0678000808f5000030036001e007800d5
:103b0c0030089000d06788001e81e8001e00780005
:103b1c00300890006a00b9008000780060cb20006b
:103b2c000080400082007800480207001e007800e8
:103b3c00b0089000a065800030089000808f500085
:103b4c0002003900100020000068880060678000c7
:103b5c000000e000dcff3a001e0078000000e000ee
:103b6c0001003200da010700f1678000210798009c
:103b7c002e0090000000e0000c0032004600070010
:103b8c000000e000020032001000200000688800f5
:103b9c002e0090000000e900200798002e009000f5
:103bac000000e000f5ff3a00fe2cef0000688000fa
:103bbc000000e00005003200100020001007980003
:103bcc00d4260200000000000000000016030700cd
:103bdc001e0090000080fa00000006000200fa00af
:103bec0004030700c1678000010f78000e03070073
:103bfc001e0078000080fa00000006000400fa00a5
:103c0c000000eb00000f7800c167800011079800de
:103c1c001e0090000080fa00000006000000fa0070
:103c2c00b06780000080fa00000006000400fa0073
:103c3c00100798001e0090000000e00002003a00ff
:103c4c00a0658000010037001e009000000f780076
:103c5c009e0078007a8040000080fa000000060088
:103c6c000400fa00100798000000eb00000f780029
:103c7c007fff0700f16780001e009000008040006d
:103c8c00f067880080ff0700000f78001e007800a6
:103c9c000080fa00000006000a00fa000000eb00a9
:103cac00000f7800506880000000e00063003a00cc
:103cbc00c06780000000e800100798009e0090008c
:103ccc00c16788001e0090000000e0000a003a0066
:103cdc00416780002107980050678000406788008a
:103cec00ae00900051678800106880000000e8006a
:103cfc001068880076010700306880009e009000f4
:103d0c00808f50003c00390001003700000000009b
:103d1c0040678000100078000000e00003003a00cb
:103d2c000080eb003068880033003700406780006b
:103d3c003000900030009000300798003e0090005a
:103d4c0090009000410798009e0090004e0090005b
:103d5c00808f500003003100ce0090003168880045
:103d6c00250037003e0090000080e80007020700a5
:103d7c003e009000200890000000e000030032009c
:103d8c003e0090006c004000000207003e009000d6
:103d9c00b0089000d0678000808f50000300360080
:103dac003e00900030089000d06788003e009000e4
:103dbc000081e8003e009000300890006a00b900d5
:103dcc008000780060cb20000080400082007800ea
:103ddc009e0107003e009000b0089000a065800096
:103dec0030089000808f5000c8ff39001000200070
:103dfc00000f7800c6ff3700a065800030089000e7
:103e0c006a00b9008000780060cb20000080400080
:103e1c0010007800e10f5000020036001000200066
:103e2c00000f7800006880000000e00006003200ff
:103e3c0010002000000f780003003700f0678000ae
:103e4c000000e800f06788001e0078000080fa008f
:103e5c00000006000400fa00506880000000e0003a
:103e6c000300320010002000006888002900370091
:103e7c00002def00d1678000010f780001003700a2
:103e8c001e0fe9001e0078006a00b900800078005f
:103e9c0060cb200000804000100078000000e000a3
:103eac00f7ff32001e0078006a00b900800078002d
:103ebc0060cb200000804000100798001e0090008e
:103ecc0010009000900090001e00900011009800cf
:103edc001e009000900090001e00900064004000b6
:103eec00808f500005003a001e00900010009000da
:103efc00900090001e009000110098001e00900091
:103f0c001000900030009000a06588009e007800a2
:103f1c00d16788000080fa00000006000400fa0057
:103f2c00000f780011079800a06580006c0040001d
:103f3c00800078001e00780062010700110020004c
:103f4c001e009000ff0007000080fa000000060031
:103f5c000600fa00000f780011079800220798005d
:103f6c00a06580009e00900001f0a0006100980008
:103f7c00a06580006c004000800078001e00780076
:103f8c0032010700110020002e009000ed00070008
:103f9c000080fa00000006000600fa0020079800d6
:103fac002e00900030009000300090001007980018
:103fbc001e0090006c0040007401070050688000e7
:103fcc000000e00016003a001e0090000080e8009f
:103fdc006e0107001e009000b0089000d0678000b2
:103fec00808f5000030036001e00900030089000b7
:103ffc00d06788001e0090000081e8001e00900031
:10400c00300890006a00b9008000780060cb200076
:10401c0000804000820078000c010700050037008a
:10402c001e0090006c00400080007800c0ce200084
:10403c00060107001e009000b0089000a0658000eb
:10404c0030089000808f50000500360010002000d2
:10405c00000f780010002000006888000200370074
:10406c000000eb00000f78001e0078000080fa00c2
:10407c00000006000600fa001007980021079800bf
:10408c002e0090008000780001f0a0001e0090002f
:10409c00010878001e00900030009000000f78009e
:1040ac001e009000390107001e80e8003701070050
:1040bc001e007800b0089000d0678000808f500000
:1040cc00030036001e00780030089000d06788008e
:1040dc001e81e8001e007800300890006a00b900cc
:1040ec008000780060cb20000080400082007800c7
:1040fc00d60007001e007800b0089000a065800074
:10410c0030089000808f5000020036001000200014
:10411c00006888000080fa00000006000200fa0027
:10412c00000f7800b3010700116880001e007800b2
:10413c0001087800c16780001e007800110098000b
:10414c00b90107000080fa00000006000200fa0026
:10415c00000f7800116880001e00780001087800bc
:10416c00c16780001e007800110098000080fa00e2
:10417c00000006000a00fa0030079800410798007a
:10418c009c010700c1678000110798003e00900059
:10419c00100090009e0090000080500020079800b6
:1041ac003e0090009000780010688000808f5000d6
:1041bc00080032003e009000900090001e0090001d
:1041cc00808f500003003e0010002000000f78008c
:1041dc00150037004e009000900078002e009000e3
:1041ec00808f50000b0036004e009000900078003d
:1041fc002e009000808050004e0090000108780046
:10420c003e009000d1ff07000000eb00000f78008b
:10421c00050037004e0090008000eb00010878008c
:10422c0010002000000f78007f0107001e007800ae
:10423c000080fa00000006000000fa0010002000c8
:10424c00006888000080fa00000006000200fa00f6
:10425c00000f78001b000700feff37000200fa0079
:10426c000000eb00000f7800070037001e007800fc
:10427c006a00b9008000780060cb2000008040000c
:10428c00520007001e0fe8001e007800e20f5000dd
:10429c00f6ff360040cd20004c000700e0cd20009a
:1042ac004a000700c0ce20004800070040cd200087
:1042bc0040678800e0cd2000506788000080fa003d
:1042cc00000006000000fa000080fa000000060062
:1042dc000200fa0040678000100078000000e00047
:1042ec0003003a000080eb003068880007003700bc
:1042fc00406780003000900030009000000f780084
:10430c001e00780010009000306888000080fa00d1
:10431c00000006000200fa00a0658000e00090009a
:10432c00010f7800a0658000a1658000b1089000a5
:10433c00e3801000610098001e0078000080fa00f5
:10434c00000006000800fa002007980031079800ca
:10435c00c1678000010f7800a06580000080e80034
:10436c008a0007002e0090001e00400010079800e5
:10437c00a06580009e009000110098001e00900027
:10438c009e0f500005003100a06580008080e80081
:10439c00506780004b0007000a003700a0658000c2
:1043ac008080e8004067800046000700306880008d
:1043bc009e009000808f5000020031009e00900003
:1043cc00316888000080fa00000006000200fa0044
:1043dc00000f78009e007800648040008000780018
:1043ec001e007800110098001e0078008080eb0001
:1043fc00210098009e0078006480400080007800c6
:10440c001e007800310098009e0078006480400007
:10441c00800078001e007800410098001e00780093
:10442c008000eb00010878000080fa000000060014
:10443c000200fa00000f78001e0078008000eb00ec
:10444c00410098000080fa00000006000600fa0007
:10445c0010079800210798001e0090009000900013
:10446c00010f78002e0090009e007800110098003b
:10447c001e007800a00090002e00900021009800f3
:10448c001e00780020009000ae00900011009800f3
:10449c001e007800ae009000210098002e009000c5
:1044ac009e009000410098001e00900010007800c3
:1044bc008000e8001e009000010878000080fa00df
:1044cc00000006000800fa00200798003107980049
:1044dc003e00900090007800110798001e0090009c
:1044ec00e10f400004003a002e009000c000900044
:1044fc00010f78000d0037002e0090006400400082
:10450c00000f7800030037001e0078009000900028
:10451c00010f78001e0078001000900090007800c9
:10452c001e009000808f5000f7ff36001e007800b0
:10453c00900090003e009000110098003e0090000a
:10454c0010009000be009000210098003e009000ea
:10455c009e007800210098001e007800be0090009c
:10456c00110098003e009000ae00900041009800b1
:10457c002e009000100078008000e8002e009000c3
:10458c00010878000080fa00000006000400fa0020
:10459c00100798001e009000c0009000010f7800da
:1045ac001e009000100090009e009000a100900052
:1045bc00210098001e009000200090009e009000aa
:1045cc0091009000110098001e007800900090005f
:1045dc001e009000808f500004003a001e009000d6
:1045ec00a00090001e007800110098001e009000a2
:1045fc008000eb00410098001e007800100078004d
:10460c008000e9001e007800010878001e00780088
:10461c00100078000080fa00000006002a00fa0062
:10462c00201798003117980042179800e4004700b3
:10463c00023128000f000900b2187800be1090005b
:10464c00110798002e1090001e01900002087800af
:10465c002e1090000080e800201798002e1090007b
:10466c008000eb00010878002e1090000080e8001c
:10467c00201798002e1090008000eb0001087800a5
:10468c002e1090000080e80020179800ce109000ab
:10469c002e109000010878002e1090000080e80089
:1046ac00201798000000eb00000f78000a0037007c
:1046bc001e0078000000400000004700a0009000a1
:1046cc002e109000010878002e1090000080e80059
:1046dc00201798001e0fe8001e007800ef0f500006
:1046ec00f3ff3600210280002e10900001087800a4
:1046fc002e1090000080e8002017980034c0bf00f6
:10470c008080fb002e109000010878002e10900085
:10471c000080e800201798002e1090008000eb001d
:10472c00010878002e1090000080e80020179800f7
:10473c002e1090000080fa00000006000000fa0025
:10474c0018000700a0658000900778004f007800e3
:10475c00606888003400f9004400f9003200f90068
:10476c003600f9004f0778004f06be004f05be001b
:10477c004f04be004f03be004f02be004f01be00ef
:10478c004f00be004200f90000000600100020009f
:10479c000080fa00000006000000fa000080fa0019
:1047ac00000006000400fa0070382100010020000f
:1047bc00008fbe000421ef000021ef001e007800e6
:1047cc001008880021058000f0ff280000806000a0
:1047dc0000c0a000200588008460a9009460a80097
:1047ec000481a80004a1a90005e1a8000080fa003a
:1047fc00000006000000fa0011028000f0f12f000a
:10480c00008060000050a000100288000000000032
:10481c0000000000606880000000e800606888000c
:10482c000080fa00000006000000fa0060688000ba
:10483c000000e90060688800606880000000e0000b
:10484c0005003a0011028000f0f12f00008060009a
:10485c0010028800000000000080fa000000060032
:10486c000000fa0015010700214420000070200010
:10487c0076002000810278000002eb0080017800b5
:10488c006204200001022a0070c8b3006700070010
:10489c000144200000702000760020008102780086
:1048ac000002eb00800178002202200001022800a7
:1048bc0070c0b3009200070040c0b300f1f40700d1
:1048cc0024c0b300032d24008201200001802200ab
:1048dc0070cab30062ef07008000eb0010c0b30099
:1048ec0074f10700f17f200010c0b3009cf10700a9
:1048fc00f17f200020c0b30099f10700f17f200068
:10490c0030c0b30096f10700f17f200040c0b30027
:10491c0093f10700f17f200050c0b30090f1070025
:10492c0011c0b30010c0b3008cf0070011c0b3006d
:10493c0020c0b30089f0070011c0b30030c0b30031
:10494c0086f0070011c0b30040c0b30083f007002d
:10495c0011c0b30050c0b30080f0070031c0b300e9
:10496c0010c0b300caf3070041c0b30020c0b300ad
:10497c00c7f3070051c0b30030c0b300c4f3070045
:10498c0061c0b30040c0b300c1f3070071c0b300f5
:10499c0050c0b300bef3070012c0b30031c0b30067
:1049ac000040eb00b2ef070012c0b30031c0b300ff
:1049bc0010c0b300aeef070012c0b30031c0b3009b
:1049cc0020c0b300aaef07000041eb0031c0b300d8
:1049dc0030c0b300a6ef07000041eb0031c0b300bc
:1049ec0040c0b300a2ef07000041eb0031c0b300a0
:1049fc0050c0b3009eef07000041eb0031c0b30084
:104a0c0060c0b3009aef07000041eb0031c0b30067
:104a1c0070c0b30096ef07000040eb0099f407005c
:104a2c00100020000080fa00000006000e00fa00c2
:104a3c00004f780011079800220798003307980060
:104a4c004407980055079800660798001e009000d0
:104a5c0000f0a100001c88002e00900000f0a100c6
:104a6c00101c8800be009000211c8800ce00900015
:104a7c00311c8800de009000411c8800ee00900084
:104a8c00511c88008480a9009e40780067c060009b
:104a9c0067406000674060000080fb0067006000ba
:104aac003205800081ff2f00810061000100700041
:104abc00300588001e4078000080fb004700de00b7
:104acc00004078000080fb00610060004400dd00c5
:104adc00a10480000140a10001007000a004880026
:104aec009e0090000000280080806000001c800068
:104afc0001007000001c88000080fa000000060015
:104b0c000e00fa00004f7800110798002207980059
:104b1c0033079800440798005507980066079800db
:104b2c001e00900000f0a100601c88002e00900078
:104b3c0000f0a100701c8800be009000811c880051
:104b4c00ce009000911c8800de009000a11c880013
:104b5c00ee009000b11c880085c0a9009e40780032
:104b6c0067c0600067406000674060000080fb0029
:104b7c00670060004800dd0052058000f18f2f00b7
:104b8c008100610001007000500588001e40780013
:104b9c000080fb004700de00004078000080fb0036
:104bac00610060004e00dd00a104800001e0a10066
:104bbc0001007000a00488009e00900000002800f6
:104bcc0080806000601c800001007000601c880008
:104bdc000080fa00000006000400fa00100798009c
:104bec000000eb00000f78001e00900061006000d8
:104bfc00004078000004e000040032001e00900029
:104c0c000000a1000080e8001007980098fb070046
:104c1c00906580000000e00003003a002080200036
:104c2c000000a10090658800816580001e00900046
:104c3c0080804000d04a2000808f50000d003e0044
:104c4c00816580001e00900080804000806580009f
:104c5c00808f5000070036009165800080658000d1
:104c6c00008f4000816580001e0090000080400095
:104c7c008065880084fb07001e0078000080fa0025
:104c8c00000006000200fa00000f78000080fa0015
:104c9c00000006000000fa00b02cef000080fa00c3
:104cac00000006000000fa0080658000e14a200048
:104cbc00008050000080fa00000006000000fa009e
:104ccc00e0042000303a8800213a8000f0f32f00f5
:104cdc0000806000203a8800213a800000fe2f00fe
:104cec0000806000203a88004827ef0040a7a90008
:104cfc003200200080072000a1092000337420001e
:104d0c00804978008149780082497800120020009f
:104d1c006004200071052000237420008049780075
:104d2c00814978008249780000000000113a800027
:104d3c00000027008080600000002300808f50005e
:104d4c00faff3a0000000000113a80000002200037
:104d5c00008060000000e000fbff32000080eb00f0
:104d6c00001688000080eb00401688000080eb00e5
:104d7c00801688000080eb00601988000080eb0032
:104d8c00803b88000080eb00903b88000080eb00ab
:104d9c00a03b88000080fa00000006004200f800ea
:104dac00801f78000002200010028800811f78000c
:104dbc00829fbe00849fbe00869fbe00889fbe005f
:104dcc008a9fbe008c9fbe008e1f78003600f800b4
:104ddc003200f8004400f8003400f80060688000ed
:104dec00801f7800a06580000f087800301f02003b
:104dfc0000000000a0658000900778004f0078004c
:104e0c00606888003400f9004400f9003200f900b1
:104e1c003600f9004f0778004f06be004f05be0064
:104e2c004f04be004f03be004f02be004f01be0038
:0c4e3c004f00be004200f900000006001c
:020000040000fa
:104e4800f03fb1000180b10006003500ee03090013
:104e580000000000403fb1000180b100fbff3d00b1
:104e68001000b000203fb0000200350000800900ab
:084e780000000000000006002c
:020000040000fa
:104e8000002700008000000000000000b40c0000bb
:104e9000580000000000000000080000b4040000fa
:104ea000000000000c0d00000200000002000000e5
:084eb000ef000000000000000b
:020000040000fa
:0200000401f009
:04000000ffff0000fe
:020000040000fa
:0200000401f009
:04000400ffff0000fa
:020000040000fa
:0200000401f009
:04000800ffff0000f6
:020000040000fa
:0200000401f009
:04000c008000000070
:020000040000fa
:0200000401f009
:0400100045000000a7
:020000040000fa
:0200000401f009
:040014005f00000089
:020000040000fa
:0200000401f009
:04001800f7000000ed
:020000040000fa
:0200000401f009
:04001c00dfff000002
:00000001FF
