:020000040000fa
:080000000002040000000000f2
:020000040000fa
:040008009a04000056
:020000040000fa
:04000c00ea03000003
:020000040000fa
:0400100028040000c0
:020000040000fa
:0400140030040000b4
:020000040000fa
:0400180038040000a8
:020000040000fa
:04001c00400400009c
:020000040000fa
:040020009a0400003e
:020000040000fa
:040024009a0400003a
:020000040000fa
:040028009a04000036
:020000040000fa
:04002c009a04000032
:020000040000fa
:040030009a0400002e
:020000040000fa
:04003400480400007c
:020000040000fa
:040038009a04000026
:020000040000fa
:04003c009a04000022
:020000040000fa
:040040009a0400001e
:020000040000fa
:040044009a0400001a
:020000040000fa
:040048009a04000016
:020000040000fa
:04004c009a04000012
:020000040000fa
:040050009a0400000e
:020000040000fa
:04005400c2030000e3
:020000040000fa
:04005800d6030000cb
:020000040000fa
:04005c009a04000002
:020000040000fa
:040060009a040000fe
:020000040000fa
:040064009a040000fa
:020000040000fa
:040068009a040000f6
:020000040000fa
:04006c009a040000f2
:020000040000fa
:040070009a040000ee
:020000040000fa
:040074009a040000ea
:020000040000fa
:040078009a040000e6
:020000040000fa
:04007c009a040000e2
:020000040000fa
:040080009a040000de
:020000040000fa
:040084009a040000da
:020000040000fa
:040088009a040000d6
:020000040000fa
:04008c009a040000d2
:020000040000fa
:040090009a040000ce
:020000040000fa
:040094009a040000ca
:020000040000fa
:040098009a040000c6
:020000040000fa
:04009c009a040000c2
:020000040000fa
:0400a0009a040000be
:020000040000fa
:0400a4009a040000ba
:020000040000fa
:0400a8009a040000b6
:020000040000fa
:0400ac009a040000b2
:020000040000fa
:0400b0009a040000ae
:020000040000fa
:0400b400f002000056
:020000040000fa
:0400b8009a040000a6
:020000040000fa
:0400bc009a040000a2
:020000040000fa
:0400c0009a0400009e
:020000040000fa
:0400c4009a0400009a
:020000040000fa
:0400c8009a04000096
:020000040000fa
:0400cc009a04000092
:020000040000fa
:0400d0009a0400008e
:020000040000fa
:0400d4009a0400008a
:020000040000fa
:0400d8009a04000086
:020000040000fa
:0400dc009a04000082
:020000040000fa
:0400e0009a0400007e
:020000040000fa
:0400e4009a0400007a
:020000040000fa
:0400e8009a04000076
:020000040000fa
:0400ec009a04000072
:020000040000fa
:0400f0009a0400006e
:020000040000fa
:0400f4009a0400006a
:020000040000fa
:0400f8009a04000066
:020000040000fa
:0400fc009a04000062
:020000040000fa
:040100009a0400005d
:020000040000fa
:040104009a04000059
:020000040000fa
:040108009a04000055
:020000040000fa
:04010c009a04000051
:020000040000fa
:040110009a0400004d
:020000040000fa
:040114009a04000049
:020000040000fa
:040118009a04000045
:020000040000fa
:04011c009a04000041
:020000040000fa
:040120009a0400003d
:020000040000fa
:040124009a04000039
:020000040000fa
:040128009a04000035
:020000040000fa
:04012c009a04000031
:020000040000fa
:040130009a0400002d
:020000040000fa
:040134009a04000029
:020000040000fa
:040138009a04000025
:020000040000fa
:04013c009a04000021
:020000040000fa
:040140009a0400001d
:020000040000fa
:040144009a04000019
:020000040000fa
:040148009a04000015
:020000040000fa
:04014c009a04000011
:020000040000fa
:040150009a0400000d
:020000040000fa
:040154009a04000009
:020000040000fa
:040158009a04000005
:020000040000fa
:04015c009a04000001
:020000040000fa
:040160009a040000fd
:020000040000fa
:040164009a040000f9
:020000040000fa
:040208009a04000054
:020000040000fa
:04020c00ea03000001
:020000040000fa
:0402100028040000be
:020000040000fa
:0402140030040000b2
:020000040000fa
:0402180038040000a6
:020000040000fa
:04021c00400400009a
:020000040000fa
:040220009a0400003c
:020000040000fa
:040224009a04000038
:020000040000fa
:040228009a04000034
:020000040000fa
:04022c009a04000030
:020000040000fa
:040230009a0400002c
:020000040000fa
:04023400480400007a
:020000040000fa
:040238009a04000024
:020000040000fa
:04023c009a04000020
:020000040000fa
:040240009a0400001c
:020000040000fa
:040244009a04000018
:020000040000fa
:040248009a04000014
:020000040000fa
:04024c009a04000010
:020000040000fa
:040250009a0400000c
:020000040000fa
:04025400c2030000e1
:020000040000fa
:04025800d6030000c9
:020000040000fa
:04025c009a04000000
:020000040000fa
:040260009a040000fc
:020000040000fa
:040264009a040000f8
:020000040000fa
:040268009a040000f4
:020000040000fa
:04026c009a040000f0
:020000040000fa
:040270009a040000ec
:020000040000fa
:040274009a040000e8
:020000040000fa
:040278009a040000e4
:020000040000fa
:04027c009a040000e0
:020000040000fa
:040280009a040000dc
:020000040000fa
:040284009a040000d8
:020000040000fa
:040288009a040000d4
:020000040000fa
:04028c009a040000d0
:020000040000fa
:040290009a040000cc
:020000040000fa
:040294009a040000c8
:020000040000fa
:040298009a040000c4
:020000040000fa
:04029c009a040000c0
:020000040000fa
:0402a0009a040000bc
:020000040000fa
:0402a4009a040000b8
:020000040000fa
:0402a8009a040000b4
:020000040000fa
:0402ac009a040000b0
:020000040000fa
:0402b0009a040000ac
:020000040000fa
:0402b400f002000054
:020000040000fa
:0402b8009a040000a4
:020000040000fa
:0402bc009a040000a0
:020000040000fa
:0402c0009a0400009c
:020000040000fa
:0402c4009a04000098
:020000040000fa
:0402c8009a04000094
:020000040000fa
:0402cc009a04000090
:020000040000fa
:0402d0009a0400008c
:020000040000fa
:0402d4009a04000088
:020000040000fa
:0402d8009a04000084
:020000040000fa
:0402dc009a04000080
:020000040000fa
:0402e0009a0400007c
:020000040000fa
:0402e4009a04000078
:020000040000fa
:0402e8009a04000074
:020000040000fa
:0402ec009a04000070
:020000040000fa
:0402f0009a0400006c
:020000040000fa
:0402f4009a04000068
:020000040000fa
:0402f8009a04000064
:020000040000fa
:0402fc009a04000060
:020000040000fa
:040300009a0400005b
:020000040000fa
:040304009a04000057
:020000040000fa
:040308009a04000053
:020000040000fa
:04030c009a0400004f
:020000040000fa
:040310009a0400004b
:020000040000fa
:040314009a04000047
:020000040000fa
:040318009a04000043
:020000040000fa
:04031c009a0400003f
:020000040000fa
:040320009a0400003b
:020000040000fa
:040324009a04000037
:020000040000fa
:040328009a04000033
:020000040000fa
:04032c009a0400002f
:020000040000fa
:040330009a0400002b
:020000040000fa
:040334009a04000027
:020000040000fa
:040338009a04000023
:020000040000fa
:04033c009a0400001f
:020000040000fa
:040340009a0400001b
:020000040000fa
:040344009a04000017
:020000040000fa
:040348009a04000013
:020000040000fa
:04034c009a0400000f
:020000040000fa
:040350009a0400000b
:020000040000fa
:040354009a04000007
:020000040000fa
:040358009a04000003
:020000040000fa
:04035c009a040000ff
:020000040000fa
:040360009a040000fb
:020000040000fa
:040364009a040000f7
:020000040000fa
:100400008f8b21000e6f22000e018800000000007b
:10041000000020000000e000020032000001200087
:100420002002880014000700940107000000e0008b
:1004300003003a00608a2900010020000200370012
:100440000000200001002000810f70000100320038
:1004500014000700000020000000e000020032004d
:100460000000020000000000fe96020000000000f4
:100470000040da000000fe004440a900407a22005b
:100480000000e0000300320000002000a00188000e
:100490004440a800000006008a1f78008b1f7800e7
:1004a0000000060091018800800478000000eb0045
:1004b0001a003700e284440032a0b4009905ba0063
:1004c000e284440032a0b4009906ba00e2844400f9
:1004d00032a0b4000006eb00476fde00fd07b2005b
:1004e000636ce10003003a00ebff07000000eb0043
:1004f0000a003700606ce10004003a00005deb0088
:100500008b05e900fdff3e00040037006168e10053
:10051000010032000086eb000b00070019c7ba008b
:100520001905ba000e04e00003003a000a00e000da
:10053000e0ff3a0000000600fe07b2009e018800be
:100540008a047800f5ff3700395dba008b05e900b1
:100550000c003200295dba008b05e900080032006a
:100560000c00e00003003a00e284440032a0b40032
:10057000f5ff370019ddba008b05e900faff3a00f4
:100580008904e800e184440032a0b40000000600c1
:100590008481040000000000368204000000000096
:1005a0004e8204000000000084830400000000006c
:1005b000e4800400000000005080040000000000ff
:1005c000429a040000000000aea3040000000000f6
:1005d0008663040000000000f27c040000000000bc
:1005e0003600f800809fbe00829fbe00849fbe0040
:1005f000869fbe003400f80000002000a0018800a3
:100600001200fa000000eb00000f7800502080007c
:10061000620060000000e00046003200002180001f
:10062000680060000000e000090032000e80e80071
:100630004e5902000000000080c480008e80e80057
:100640008001eb000e0178007e73020000000000c4
:1006500000218000700060000000e000090032000e
:100660000e80e8004e5902000000000080c48000a7
:100670008e80e8008001eb000e0178007e7302009e
:1006800000000000012180000002200000806000c6
:100690000000e000090032000e80e8004e59020020
:1006a0000000000080c480008e80e8008001eb0024
:1006b0000e0178007e73020000000000012180001e
:1006c00000042000008060000000e000090032000b
:1006d0000e80e8004e5902000000000080c4800037
:1006e0008e80e8008001eb000e0178007e7302002e
:1006f0000000000001218000000820000080600050
:100700000000e000090032000e80e8004e590200af
:100710000000000080c480008e80e8008001eb00b3
:100720000e0178007e730200000000000a24a90078
:100730000500370050208000610060000000e000ec
:10074000010032000a04a9001e0078000000e00049
:10075000030032005ea30200000000000000000061
:100760008860a9000080fa003400f9004f03be0041
:100770004f02be004f01be004f00be003600f90020
:10078000004006003400f800881f780008002000b0
:10079000a80188004f0478000000fa008560a900d5
:1007a0000080fa003400f900004006003400f80030
:1007b000881f780008002000a80188004f047800f6
:1007c0000000fa008580a9000080fa003400f900da
:1007d00000400600809fbe00829fbe000000fa001d
:1007e0006400fc002200200080072000a1092000f6
:1007f000337420008049780081497800824978006c
:1008000012002000600420007105200023742000e5
:100810008049780081497800824978000000000012
:10082000113a800000002700808060000000220054
:10083000808f5000faff3a000000fc008020a900e1
:100840000080fa004f01be004f00be0000400600cd
:100850000000fa008060a9000080fa000040060055
:100860000000fa008040a9000080fa000040060065
:100870000000fa008080a9000080fa000040060015
:100880000000fa0080a0a9000080fa0000400600e5
:100890003600f800809fbe00829fbe00849fbe008d
:1008a000869fbe003400f80000002000a0018800f0
:1008b0000000fa008460a9000060fe00211680009c
:1008c000001020000080600000f0a7000000ea0097
:1008d0000000e9004f00de00004078000080fb00cf
:1008e000610060004800dd00211680000180a10049
:1008f0000100700020168800546002000000000013
:100900000000e000030032005ea3020000000000cf
:10091000000000000080fa003400f9004f03be0020
:100920004f02be004f01be004f00be003600f9006e
:10093000004006000040da000000fe000000e00079
:10094000050035007f00e10002003600f007b1002d
:1009500001003a0010000500000005000002b1008f
:1009600003003500e005b10001003c001000050067
:10097000000005000a00fa00e20f500034003e00bb
:10098000b0c48000e10f500003003200e20f5000bd
:1009900011003a000c003700032220000300e000a1
:1009a00001003a000040da002002e20002003500b7
:1009b0002822ef0021e2a8002342ab000d003a00fc
:1009c0002342a8000b003700032320000300e000af
:1009d00001003a000040da003002e2000200350077
:1009e0003822ef0031e2a8003342ab0001003a00a8
:1009f0003342a800820178000b0037003102fb006f
:100a0000e10f500004003a002322ab00feff3a0041
:100a100024118800030037003322ab00feff3a00a8
:100a2000a41188008301e9000300e000f3ff3a000d
:100a3000e10f500003003a002302ab00feff32003a
:100a40000b0037003302ab00feff32000800370016
:100a500033002000b3bf9f00c0bf9f00d1bf9f00e5
:100a6000e2bf9f006a8057006a0307006fb99700d2
:100a7000020078000080fa00000006000000050077
:100a80006022b800060220000000d0008180d20061
:100a90000482d2008582d2000000a000020252002f
:100aa00083825a00030031000202420083824a001e
:100ab0000000a1000603e900f3ff3a000000060071
:100ac0008001780002003700b15978000201e90086
:100ad0000200e000fcff3a00000006008001780000
:100ae00002003700815978000201e9000200e000ad
:100af000fcff3a00000006000c00fa00889fbe00d0
:100b000000047800f0ff2700d0bf9f008004eb00b6
:100b100099bf9f0088bf9f00a8bf9f00200c2000a6
:100b2000b0bf9f0078815700cfb09700708057000a
:100b3000100007000fb89700094878008fb8970099
:100b4000088050004f04be000080fa00000006003c
:100b5000d0019000028151004240a90003003400fe
:100b600010017800014978000208e80001007800cf
:100b700000000600f6874700889fbe008a9fbe00df
:100b80008c9fbe008e1f780000057800a1b79f00e3
:100b9000020778008004eb0090023700afb09700a6
:100ba0008100e800a1b79f0051c2b300814f5000ff
:100bb00003003a00afb097000004eb0011003700cb
:100bc000ba0090000000fb000168a300070032009b
:100bd00009017800800078000a007800dcff070037
:100be0000000e00005003a007c0237008a0078002f
:100bf00086020700e10f4000780232008904e80015
:100c0000760237000100780031417800d3c2b3008a
:100c1000834f51000c00320007003c00edc1510031
:100c2000834f51000a003200ebc14100834f510055
:100c30000d003a000800370003c3b300834f510092
:100c400009003a00060037000830a000edff370029
:100c50000800a000ebff37000810a000e9ff3700f4
:100c60000820a000e7ff37000818a30001003200a9
:100c70000800a1000838a300010032000820a100ec
:100c80008200fb000103b100e98f50000c003e0020
:100c9000000178008000eb006a08b900b201fb0097
:100ca0000303b10080804100020078009201fb0044
:100cb0000303b100e98f5100f7ff3600060037004b
:100cc0008000eb00a3c2b300834f510002003a0042
:100cd000ce0078000000e8008005eb00e2c2b3001f
:100ce000904f110009003a0008e0a0006441510053
:100cf000d04f11000300320000017800010278009b
:100d000006003700ce0578000000e80000017800fa
:100d1000090037006a58b900808541000200780058
:100d2000b201fb000303b100e98f5100f9ff360067
:100d300084007800f5ff370032407800a2b79f00aa
:100d4000c3c6b300834f5000250032000f003c00a3
:100d500032c6b300824f50008800320004003c00cd
:100d60000004e000220232006b4151000f00370006
:100d700042c6b300824f5000170032006541410067
:100d8000824f500094003a001300370032c7b3007e
:100d9000824f50001b00320007003c0064415100ac
:100da000824f5000100032000241e800824f500094
:100db00089003a000f00370052c7b300824f50003d
:100dc0008a00320063414100824f500082003a00a5
:100dd000e0df9f0009003700e0df9f00850037005b
:100de0000840a000d4ff3700e0df9f000860a000ab
:100df00080003700e0df9f000850a0000870a000ce
:100e00007c003700e0df9f004e007800000678008d
:100e10000000e00001003a000c7f21000c01780086
:100e20000000eb00010037000000e800e24178001c
:100e30000304e000fcff3a00800678000b00e000ad
:100e4000030032008d8f5500010031008b067800c1
:100e50008005eb008d8f5000010036008d8550001d
:100e6000680464002a003a00110037003a0090003c
:100e70000068a30007003200090178000102200089
:100e80000a00780032ff07000000e00006003a0088
:100e9000060037008a00780000022000db0107000e
:100ea000e10f4000010032008904e8008b05e900f1
:100eb0000b00e000edff3a008085eb0014003700e6
:100ec0003a0090000068a300090032000c0078008e
:100ed000b000fb0000067800090178000a007800e5
:100ee0001bff07000000e00008003a000800370080
:100ef0008c0078003100fb00010678008a00780041
:100f0000c2010700e10f4000010032008904e8003f
:100f10000d0078008006e9000000e000e8ff3a00dc
:100f20000800e000ad013200110037003a009000e7
:100f30000068a300070032000901780001022000c8
:100f40000a00780002ff07000000e00006003a00f7
:100f5000060037008a00780000022000ab0107007d
:100f6000e10f4000010032008904e8008b05e90030
:100f70000b00e000edff3a00980137004e017800c9
:100f8000cf91de00c81ade004818dd004812de00ee
:100f900004027000e4df9f000848a300080032004c
:100fa0000404e00006003200e14f42000400320079
:100fb000f4df9f0082e79f002d0020000200370031
:100fc000f2df9f001d002000e2fd2f000f01410015
:100fd0000206e80099ff3700e0df9f00ecfd2f00dc
:100fe0000f0646001d00200094ff3700e0df9f0041
:100ff000080cb30008017800020cb2007000640015
:101000000200e0000d003a000000e00002003200a3
:101010004e06be00020037004e067800cfe6de0026
:10102000e00f5600e08f5e000a003d003800b3007c
:1010300060061600e0861e00060037000000e00093
:10104000020032004e06be00020037004e06780055
:101050008006eb000b00e00005003a008c8576006e
:101060000bf0a7008b05ea008b05e900cf5dde00e1
:1010700088017800030cb200e3b79f000004200051
:10108000808f51002300320003003c000300e00089
:10109000080032002d003700000820006fb29700d2
:1010a000800f52000d003200000c2000800f520013
:1010b00026003a00827f210010c0b3006401410085
:1010c000b20f5600a28f5e001f0039000040e800fa
:1010d000ea4f5000f9ff3a001b00370010c0b30080
:1010e0000201200003002000820f5600838f5e0063
:1010f00015003900441add00cc11de0083017200b6
:101100004411dd000040e800e84f5000f6ff3a00cf
:101110000d00370010c0b300820020000300200043
:10112000820f5600838f5e0007003900431add00ee
:10113000cd11de00830172004311dd000040e800a4
:10114000eb4f5000f6ff3a00e0df9f006fd99700a9
:101150000200fb008b0f500002003d00ebdf9f0000
:1011600003003700808f550001003d0080057800a6
:101170000100e0000300320063006400010032005f
:101180008100e90008e8a300050032008b8f5000c1
:10119000020034008b805000010037008000eb001b
:1011a000efd997000300fb000002eb00d4b79f00cb
:1011b000808f50000200340000805000d0b79f00a4
:1011c0000828a30040003200610164000818a30051
:1011d0000f0032003a0090000068a30006003200c1
:1011e000b10220000200e000010032008180e8002e
:1011f000090178000d003700b00220000200e00075
:10120000010032000080e8008a0078000e003700fc
:101210000200e000100032003a0090000068a300d5
:101220000700320009017800010220000a0078005e
:1012300047fe07000000e00006003a000600370005
:101240008a00780000022000f0000700e10f400053
:10125000010032008904e8005fb097000000e00060
:101260005a003200bcb79f00cdb79f0080067800bf
:101270003a0090000068a3000700320009017800de
:10128000010320000a00780031fe07000000e000a2
:1012900006003a00060037008a00780000032000ac
:1012a000da000700e10f4000010032008904e80085
:1012b0008d06e900eeff3a00ddb79f003fb69700cc
:1012c000cfb6970041003700dfb197000300e00080
:1012d0001a0032000838a30018003a00bcb79f007b
:1012e000cdb79f00830678003a0090000068a30005
:1012f0000700320009017800010220000a0078008e
:1013000013fe07000000e00006003a000600370068
:101310008a00780000022000bc000700e10f4000b6
:10132000010032008904e8008d06e900eeff3a0072
:10133000ddb79f003fb69700cfb69700610164000c
:101340000818a3000f0032003a0090000068a300c4
:1013500006003200b10220000200e000010032006d
:101360008180e800090178000d003700b0022000fc
:101370000200e000010032000080e8008a007800ee
:101380000e0037000200e000100032003a0090002a
:101390000068a30007003200090178000102200064
:1013a0000a007800eafd07000000e00006003a00ad
:1013b000060037008a007800000220009300070032
:1013c000e10f4000010032008904e8000b03e9004e
:1013d0006330b90000017800b2b79f004233dd00ee
:1013e000807f2100000343008e01780093b79f00a7
:1013f00008077800060478005c0037008b05e900d8
:10140000000420006fb29700800f520038003200b5
:1014100003003c000400e000080032003e003700fa
:1014200000082000efb09700808f500020003200ad
:10143000000c2000808f500037003a000e48a300b7
:10144000100032001802be000401be000c00be00f5
:10145000f4b79f0085bf9f0089fd0700e0df9f0074
:101460000000fb00cf80de007fb297008fba9700ac
:101470000401be00e90007000006560081865e00f8
:101480000700370018017800110009000286d80013
:10149000a2002000110009000280d800e1df9f00b7
:1014a0006fd997000243b000e2df9f001a003700b7
:1014b000f07d21000e58a30001003200e07c2100e5
:1014c000817f2100810054000c01be008100e900f1
:1014d000030033008301d1000281d300fbff3700fa
:1014e000ef006100e0c07800e1df9f000a003700f4
:1014f0000c00be00bfb197008301e9000300330078
:101500008100d1000080d300fbff370067406000fe
:101510000043b000e0df9f00ba0090006fda970050
:101520000400fb000168a3000700320009017800f5
:10153000800078000a00780085fd07000000e000c8
:1015400005003a00050037008a0078002f000700e8
:10155000e10f4000010032008904e8003fb097002d
:1015600063005000b0b79f00640454000b00e0001b
:10157000a2ff3a000e0478001fb797000838a300b6
:1015800016003200dfb097000100e00013003400c5
:10159000010478003a0090000068a30007003200c0
:1015a00009017800010220000a00780068fd0700a8
:1015b0000000e00006003a00060037008a007800cc
:1015c0000002200011000700e10f4000010032007e
:1015d0008904e8000804e900eeff3a002fb1970003
:1015e00012407800e0df9f000004e0006bfd3a004d
:1015f000090078004f0778004f06be004f05be0077
:101600004f04be006f01b10000000600889fbe00bd
:1016100001047800b80090008084eb000118a3005a
:101620003a003200180190000198a30002003a002d
:101630000200e00035003a000190a000310498005b
:1016400080047800f90fb2000200e00002003a00c6
:1016500028009000000c7800ea8f540005003a0042
:101660000178a30003003a0088007800d000200031
:10167000e6ff070018009000d8009000810f50008e
:101680000b0032000000e8001004980018007800f9
:1016900009487800000ce80011c0b300c0872100a1
:1016a00001487800ea8f540018003a00050037001e
:1016b000880078000940780017000700800478004f
:1016c00012003700380090000088a3000f0032009d
:1016d00018019000a800900048009000a5fc0700a9
:1016e00098009000810f50000400320038009000f4
:1016f0000003b300300498008084eb000000eb008e
:101700001004980028009000000c78000900780070
:101710004f04be00000006000200fa00889fbe00d1
:10172000a0ff9f0001047800380090000068a3002b
:1017300033003a00e200600005003a000003b30005
:1017400030049800110498000080eb002e00370050
:10175000d80490000900e00006003a0012002000c2
:10176000e68057004800900082fc070019049800aa
:1017700023003700a80090000100e00008003a00b4
:10178000f187210021049800010c7800210020003d
:1017900051049800110498000030a0003004980013
:1017a00018019000a80090004800900071fc07000c
:1017b000280090008080eb0011049800aff897009b
:1017c00001487800000ce8002ff89700ea4f50001d
:1017d0000b003a00380090000088a3000800320097
:1017e00018019000a80090004800900061fc0700dc
:1017f0000000eb0010049800a8009000010c780095
:10180000aff897000100fb004f04be000080fa0013
:101810000000060000c0da0000000600020ab9005d
:10182000001bb9000200b8008100420081004300a3
:0418300000000600ae
:020000040000fa
:10183400504700004d20000053650000726900000d
:10184400616c000000000000506100007373000030
:10185400776f0000726400000050000061720000a5
:10186400616d000065740000657200007300000083
:10187400446f00006f720000536500006c65000047
:1018840063740000004300006f6e00007472000077
:101894006f6c000073000000546900006d65000067
:1018a40073000000496e000070750000747300003e
:1018b400004f000075740000707500007300000094
:1018c40045720000726f0000727300002000000077
:1018d400537400006174000075730000004d000033
:1018e400616e0000657500007665000072000000fe
:1018f4005365000074740000696e00006773000093
:10190400000000009a160000e6aa00001a8c0000ed
:10191400258c0000b01600006aab0000268c000085
:10192400258c0000c6160000eeab00002f8c0000d2
:10193400258c0000dc16000072ac00003a8c00001c
:10194400258c0000f2160000f6ac0000458c000067
:10195400258c0000081700007aad00004e8c0000b2
:10196400258c00001e170000fead0000548c000002
:10197400258c00003417000082ae00005b8c000050
:10198400258c00000000000006af0000628c0000ff
:10199400258c0000000000008aaf00006a8c000063
:1019a400258c0000000000000eb00000718c0000c7
:1019b400258c00000000000092b000007a8c00002a
:1019c400258c000052650000616400002858000066
:1019d4002920000020500000726f000067280000da
:1019e400412900000000000000000000e48c000019
:1019f400258c00004a1700000908000008000000b8
:101a04000000000000000000000000004a17000071
:101a14000a080000000000000000000000000000b0
:101a2400000000004a1700000b080000000000003e
:101a34000000000000000000000000004a17000041
:101a44000c080000000000005361000076650000ef
:101a5400285800002900000056aa000000000000d9
:101a6400000000004a170000090000000800000000
:101a740056aa0000268d0000258c00005217000095
:101a84000900000004000000000000000000000045
:101a9400000000004a1700000a08000000000000cf
:101aa40000000000000000000000000052170000c9
:101ab4000b04000000000000547900007065000071
:101ac400446f00006f720000004100005554000094
:101ad40000530000454d0000004200004154000046
:101ae400004d0000414e00000054000079700000d9
:101af400436c00006f730000650000004341000068
:101b04004c000000425500005400000043740000e3
:101b14006c53000070650000656400000053000011
:101b2400494d0000004400004f550000004d0000e6
:101b34006f640000486900006472000061000000e6
:101b4400536500006e480000696400007261000083
:101b540000530000656e00007365000055500000de
:101b6400530000005365000072760000694b0000ca
:101b740045590000004200006c6f0000636b0000d8
:101b84004b45000059000000446500006c43000010
:101b9400616c00006c730000005400007970000058
:101ba400436100006c6c00007300000044550000a9
:101bb40041000000434f00004c000000534500006a
:101bc4004c000000437400006c470000726f00007a
:101bd4007570000000430000746c0000536c00003a
:101be40061760000650000004e7500006d53000032
:101bf4006c6100007665000000410000757800000b
:101c0400536c000061760000650000005072000013
:101c1400695300006c61000076650000002d00002f
:101c24004f700000746900006f6e0000732d000097
:101c340000200000526500006164000020410000a3
:101c44006c6c000000200000436c00006561000023
:101c540072200000416c00006c0000002053000062
:101c64006176000065200000416c00006c000000fb
:101c740000000000000000005e8d0000258c0000c4
:101c8400601700000d0800000100000004000000bf
:101c940000000000678d00006b8d00006f8d000058
:101ca400738d00000000000000000000778d00002c
:101cb400258c0000611700000d08000001000000e1
:101cc4000300000000000000678d0000808d00000c
:101cd400848d0000000000000000000000000000ef
:101ce400888d0000258c0000621700000d0800009c
:101cf400010000000200000000000000918d0000bf
:101d0400958d0000000000000000000000000000ad
:101d140000000000998d0000258c0000631700006e
:101d24000d0400000100000002000000000000009b
:101d3400000000000000000000000000000000009f
:101d44000000000000000000a28d0000258c0000af
:101d5400641700000d0400000100000002000000f0
:101d6400000000000000000000000000000000006f
:101d7400000000000000000000000000ab8d000027
:101d8400258c0000651700000d0400000100000010
:101d9400020000000000000000000000000000003d
:101da400000000000000000000000000000000002f
:101db400b48d0000258c0000661700000d0400009f
:101dc400010000000200000000000000000000000c
:101dd40000000000000000000000000000000000ff
:101de40000000000bd8d0000258c00006717000076
:101df4000d040000010000000200000000000000cb
:101e040000000000000000000000000000000000ce
:101e14000000000000000000c68d0000258c0000ba
:101e2400681700000d04000001000000020000001b
:101e3400000000000000000000000000000000009e
:101e4400000000000000000000000000cf8d000032
:101e5400258c0000691700000d0800000100000037
:101e64000400000000000000918d0000d88d0000e7
:101e7400dc8d0000e08d0000000000000000000088
:101e8400e48d0000258c00006a1700000d0400009a
:101e9400010000000200000000000000000000003b
:101ea400000000000000000000000000000000002e
:101eb40000000000ed8d0000258c00006b17000071
:101ec4000d040000010000000200000000000000fa
:101ed40000000000000000000000000000000000fe
:101ee4000000000000000000f68d0000258c0000ba
:101ef4006c1700000d030000010000000800000042
:101f040000000000000000000000000000000000cd
:101f1400000000000000000000000000ff8d000031
:101f2400258c00006d1700000d0400000100000066
:101f3400020000000000000000000000000000009b
:101f4400000000000000000000000000000000008d
:101f5400088e0000258c00006e1700000d030000a1
:101f64000100000008000000000000000000000064
:101f7400000000000000000000000000000000005d
:101f840000000000118e0000258c000000000000fd
:101f9400000100000000000000000000000000003c
:101fa400000000000000000000000000000000002d
:101fb4000000000062aa00001b8e0000258c0000b7
:101fc400601700000a0000000f000000000000007d
:101fd40000000000000000000000000000000000fd
:101fe40000000000000000007aaa0000258e000016
:101ff400258c0000601700000b0000000f0000009b
:1020040000000000000000000000000000000000cc
:102014000000000000000000000000006eaa0000a4
:10202400308e0000258c0000601700000c000000ba
:102034000f0000000000000000000000000000008d
:10204400000000000000000000000000466c0000da
:102054006f6f00007220000030310000004f00005c
:102064004e45000000540000574f0000004200009d
:102074004f540000004600006c6f00006f720000b7
:102084002030000032000000466c00006f6f00003a
:102094007220000030330000004600006c6f000026
:1020a4006f7200002030000034000000466c000015
:1020b4006f6f000072200000303500000046000001
:1020c4006c6f00006f7200002030000036000000ca
:1020d400466c00006f6f0000722000003037000073
:1020e400004600006c6f00006f720000203000009a
:1020f40038000000466c00006f6f00007220000082
:1021040030390000004600006c6f00006f72000060
:102114002031000030000000466c00006f6f0000aa
:102124007220000031310000004600006c6f000096
:102134006f7200002031000032000000466c000085
:102144006f6f000072200000313300000046000071
:102154006c6f00006f72000020310000340000003a
:10216400466c00006f6f00007220000031350000e3
:10217400004600006c6f00006f7200002031000008
:1021840036000000466c00006f6f000072200000f3
:1021940031370000004600006c6f00006f720000d1
:1021a4002031000038000000466c00006f6f000012
:1021b4007220000031390000004600006c6f0000fe
:1021c4006f7200002032000030000000466c0000f6
:1021d4006f6f0000722000003231000000460000e2
:1021e4006c6f00006f7200002032000032000000ab
:1021f400466c00006f6f0000722000003233000054
:10220400004600006c6f00006f7200002032000076
:1022140034000000466c00006f6f00007220000064
:1022240032350000004600006c6f00006f72000041
:102234002032000036000000466c00006f6f000082
:102244007220000032370000004600006c6f00006e
:102254006f7200002032000038000000466c00005d
:102264006f6f000072200000323900000046000049
:102274006c6f00006f72000020330000300000001b
:10228400466c00006f6f00007220000033310000c4
:10229400004600006c6f00006f72000020330000e5
:1022a4003200000000000000000000002890000040
:1022b400258c00006f1700000d08000001000000cd
:1022c4000300000000000000319000003590000081
:1022d4003990000000000000000000000000000031
:1022e4003d900000258c0000701700000d080000d0
:1022f4000100000003000000000000003190000015
:10230400359000003990000000000000000000003b
:102314000000000046900000258c000071170000aa
:102324000d08000001000000030000000000000090
:10233400319000003590000039900000000000004a
:1023440000000000000000004f900000258c0000f9
:10235400721700000d0800000100000003000000d7
:10236400000000003190000035900000399000001a
:102374000000000000000000000000005890000071
:10238400258c0000731700000d08000001000000f8
:1023940003000000000000003190000035900000b0
:1023a4003990000000000000000000000000000060
:1023b40061900000258c0000741700000d080000d7
:1023c4000100000003000000000000003190000044
:1023d400359000003990000000000000000000006b
:1023e400000000006a900000258c000075170000b2
:1023f4000d080000010000000300000000000000c0
:102404003190000035900000399000000000000079
:10241400000000000000000073900000258c000004
:10242400761700000d080000010000000300000002
:102434000000000031900000359000003990000049
:102444000000000000000000000000007c9000007c
:10245400258c0000771700000d0800000100000023
:1024640003000000000000003190000035900000df
:10247400399000000000000000000000000000008f
:1024840085900000258c0000781700000d080000de
:102494000100000003000000000000003190000073
:1024a400359000003990000000000000000000009a
:1024b400000000008e900000258c000079170000b9
:1024c4000d080000010000000300000000000000ef
:1024d40031900000359000003990000000000000a9
:1024e400000000000000000097900000258c000010
:1024f4007a1700000d08000001000000030000002e
:102504000000000031900000359000003990000078
:10251400000000000000000000000000a090000087
:10252400258c00007b1700000d080000010000004e
:10253400030000000000000031900000359000000e
:1025440039900000000000000000000000000000be
:10255400a9900000258c00007c1700000d080000e5
:1025640001000000030000000000000031900000a2
:1025740035900000399000000000000000000000c9
:1025840000000000b2900000258c00007d170000c0
:102594000d0800000100000003000000000000001e
:1025a40031900000359000003990000000000000d8
:1025b4000000000000000000bb900000258c00001b
:1025c4007e1700000d080000010000000300000059
:1025d40000000000319000003590000039900000a8
:1025e400000000000000000000000000c490000093
:1025f400258c00007f1700000d080000010000007a
:10260400030000000000000031900000359000003d
:1026140039900000000000000000000000000000ed
:10262400cd900000258c0000801700000d080000ec
:1026340001000000030000000000000031900000d1
:1026440035900000399000000000000000000000f8
:1026540000000000d6900000258c000081170000c7
:102664000d0800000100000003000000000000004d
:102674003190000035900000399000000000000007
:102684000000000000000000df900000258c000026
:10269400821700000d080000010000000300000084
:1026a40000000000319000003590000039900000d7
:1026b400000000000000000000000000e89000009e
:1026c400258c0000831700000d08000001000000a5
:1026d400030000000000000031900000359000006d
:1026e400399000000000000000000000000000001d
:1026f400f1900000258c0000841700000d080000f4
:102704000100000003000000000000003190000000
:102714003590000039900000000000000000000027
:1027240000000000fa900000258c000085170000ce
:102734000d0800000100000003000000000000007c
:102744003190000035900000399000000000000036
:10275400000000000000000003910000258c000030
:10276400861700000d0800000100000003000000af
:102774000000000031900000359000003990000006
:102784000000000000000000000000000c910000a8
:10279400258c0000871700000d08000001000000d0
:1027a400030000000000000031900000359000009c
:1027b400399000000000000000000000000000004c
:1027c40015910000258c0000881700000d080000fa
:1027d4000100000003000000000000003190000030
:1027e4003590000039900000000000000000000057
:1027f400000000001e910000258c000089170000d5
:102804000d080000010000000300000000000000ab
:102814003190000035900000399000000000000065
:10282400000000000000000027910000258c00003b
:102834008a1700000d0800000100000003000000da
:102844000000000031900000359000003990000035
:1028540000000000000000000000000030910000b3
:10286400258c00008b1700000d08000001000000fb
:1028740003000000000000003190000035900000cb
:10288400399000000000000000000000000000007b
:1028940039910000258c00008c1700000d08000001
:1028a400010000000300000000000000319000005f
:1028b4003590000039900000000000000000000086
:1028c4000000000042910000258c00008d170000dc
:1028d4000d080000010000000300000000000000db
:1028e4003190000035900000399000000000000095
:1028f40000000000000000004b910000258c000047
:102904008e1700000d080000010000000300000005
:102914000000000031900000359000003990000064
:10292400000000000000000000000000118e000004
:10293400258c0000000000000001000000000000e1
:102944000000000000000000000000000000000083
:1029540000000000000000000000000062aa000067
:102964001b8e0000258c00006f1700000a00000079
:102974002000000000000000000000000000000033
:102984000000000000000000000000000000000043
:102994007aaa0000258e0000258c00006f17000025
:1029a4000b000000200000000000000000000000f8
:1029b4000000000000000000000000000000000013
:1029c400000000006eaa0000308e0000258c00007c
:1029d4006f1700000c000000200000000000000041
:1029e40000000000000000000000000000000000e3
:1029f400000000004d610000784600006c6f00008c
:102a04006f720000004d0000617800005661000004
:102a1400756c0000740000005265000074430000ef
:102a240061620000696e00000052000065740000dd
:102a34004669000072650000004d000061780000e6
:102a4400540000000000000000000000fc9400009e
:102a5400258c0000911700000d0300000100000008
:102a64002000000000000000000000000000000042
:102a74000000000000000000000000000000000052
:102a840005950000258c0000921700000d0300003e
:102a94000100000008000000000000000000000029
:102aa4000000000000000000000000000000000022
:102ab400000000000e950000258c00009317000014
:102ac4000d030000010000002000000000000000d1
:102ad40000000000000000000000000000000000f2
:102ae400000000000000000017950000258c000085
:102af400941700000d0300000100000020000000f6
:102b040000000000000000000000000000000000c1
:102b14000000000000000000000000001f950000fd
:102b2400258c0000961700000d030000040000002f
:102b34007f960000980000000000000000000000e4
:102b44000000000000000000000000000000000081
:102b5400118e0000258c0000000000000001000020
:102b64000000000000000000000000000000000061
:102b74000000000000000000000000000000000051
:102b840062aa00001b8e0000258c00009017000034
:102b94000a0000000a00000000000000000000001d
:102ba4000000000000000000000000000000000021
:102bb400000000007aaa0000258e0000258c000089
:102bc400901700000b0000000a0000000000000045
:102bd40000000000000000000000000000000000f1
:102be40000000000000000006eaa0000308e00000b
:102bf400258c0000901700000c0000000a00000063
:102c040000000000000000000000000000000000c0
:102c14000000000000000000537400006172000016
:102c2400506f0000737400000053000074610000d2
:102c3400724700006f5500007000000053740000dc
:102c440061720000476f00004d64000000530000f3
:102c540074610000724700006f44000077000000b8
:102c640052650000766c0000476f0000557000004c
:102c740000520000657600006c4700006f440000bd
:102c84007700000042750000744300006c6f000080
:102c9400736500000042000075740000556e00006a
:102ca4006261000072000000446f00006f72000057
:102cb400436c00006f73000000540000726c00004d
:102cc40043610000626900006e0000004c65000072
:102cd4006443000061620000696e0000005300005c
:102ce4006f6e000043610000626900006e00000026
:102cf4004c6d0000745300007065000065640000b2
:102d040000530000746100007254000072610000fe
:102d140076000000537400006f70000054720000cd
:102d240061760000000000000000000000000000c8
:102d34000e960000258c00009a1700000d03000079
:102d440001000000ff00000000000000000000007f
:102d5400000000000000000000000000000000006f
:102d64000000000017960000258c00009b1700004f
:102d74000d03000001000000ff000000000000003f
:102d8400000000000000000000000000000000003f
:102d9400000000000000000020960000258c0000c8
:102da4009c1700000d03000001000000ff0000005c
:102db400000000000000000000000000000000000f
:102dc4000000000000000000000000002996000040
:102dd400258c00009d1700000d0300000100000079
:102de400ff000000000000000000000000000000e0
:102df40000000000000000000000000000000000cf
:102e040032960000258c00009e1700000d03000080
:102e140001000000ff0000000000000000000000ae
:102e2400000000000000000000000000000000009e
:102e3400000000003b960000258c00009f17000056
:102e44000d03000001000000ff000000000000006e
:102e5400000000000000000000000000000000006e
:102e6400000000000000000044960000258c0000d3
:102e7400a01700000d03000001000000ff00000087
:102e8400000000000000000000000000000000003e
:102e94000000000000000000000000004d9600004b
:102ea400258c0000a11700000d03000001000000a4
:102eb400ff0000000000000000000000000000000f
:102ec40000000000000000000000000000000000fe
:102ed40056960000258c0000a21700000d03000088
:102ee40001000000ff0000000000000000000000de
:102ef40000000000000000000000000000000000ce
:102f0400000000000e950000258c0000a3170000af
:102f14000d03000001000000ff000000000000009d
:102f2400000000000000000000000000000000009d
:102f340000000000000000005f960000258c0000e7
:102f4400a41700000d03000001000000ff000000b2
:102f5400000000000000000000000000000000006d
:102f6400000000000000000000000000689600005f
:102f7400258c0000a51700000d03000001000000cf
:102f8400ff0000000000000000000000000000003e
:102f9400000000000000000000000000000000002d
:102fa40071960000258c0000a61700000d03000098
:102fb40001000000ff00000000000000000000000d
:102fc40000000000000000000000000000000000fd
:102fd400000000007a960000258c0000a71700006e
:102fe4000d03000001000000ff00000000000000cd
:102ff40000000000000000000000000000000000cd
:10300400000000000000000083960000258c0000f2
:10301400aa1700000d03000002000000ffff0000db
:10302400000000000000000000000000000000009c
:103034000000000000000000000000008c9600006a
:10304400258c0000ac1700000d03000002000000f6
:10305400ffff00000000000000000000000000006e
:10306400000000000000000000000000000000005c
:10307400118e0000258c00000000000000010000fb
:10308400000000000000000000000000000000003c
:10309400000000000000000000000000000000002c
:1030a40062aa00001b8e0000258c00009a17000005
:1030b4000a000000160000000000000000000000ec
:1030c40000000000000000000000000000000000fc
:1030d400000000007aaa0000258e0000258c000064
:1030e4009a1700000b00000016000000000000000a
:1030f40000000000000000000000000000000000cc
:1031040000000000000000006eaa0000308e0000e5
:10311400258c00009a1700000c0000001600000027
:10312400000000000000000000000000000000009b
:1031340000000000000000002d530000656e000038
:1031440073650000732d000000500000756c0000d2
:1031540073650000730000004e690000766500008e
:103164006c000000537000006565000064480000b6
:103174006967000068000000537000006565000086
:10318400644c00006f77000000520000656c000082
:1031940065760000656c0000005500005053000087
:1031a4000042000072650000616b000000410000f5
:1031b40075780000002d0000536500006375000061
:1031c4007269000074690000657300002d0000003e
:1031d400466900007273000074000000536500002b
:1031e400636f00006e640000004400006f6f000015
:1031f40072480000616c00006c000000446f000025
:103204006f72000043610000626900006e000000fc
:10321400446f00006f72000053770000696e000075
:1032240067000000526500007669000065770000c1
:1032340043740000726c00000052000065760000c8
:1032440069650000775500007000000052650000b9
:1032540076690000657700004477000000000000f4
:1032640000000000000000009e980000258c000073
:103274000000000000010000000000000000000049
:10328400000000000000000000000000000000003a
:10329400000000000000000000000000a7980000eb
:1032a400258c0000b01700000d070000010000008d
:1032b4000100000000000000000000000000000009
:1032c40000000000000000000000000000000000fa
:1032d400ae980000258c0000b01700000d07000018
:1032e40001000000020000000000000000000000d7
:1032f40000000000000000000000000000000000ca
:1033040000000000b4980000258c0000b0170000f5
:103314000d07000001000000040000000000000090
:103324000000000000000000000000000000000099
:103334000000000000000000be980000258c000082
:10334400b01700000d070000010000000800000095
:103354000000000000000000000000000000000069
:10336400000000000000000000000000c7980000fa
:10337400258c0000b01700000d07000001000000bc
:103384001000000000000000000000000000000029
:103394000000000000000000000000000000000029
:1033a400cf980000258c0000b01700000d07000026
:1033b40001000000200000000000000000000000e8
:1033c40000000000000000000000000000000000f9
:1033d40000000000d3980000258c0000b017000006
:1033e4000d07000001000000400000000000000084
:1033f40000000000000000000000000000000000c9
:103404000000000000000000d9980000258c000096
:10341400b01700000d07000001000000800000004c
:103424000000000000000000000000000000000098
:10343400000000000000000000000000dd98000013
:10344400258c0000000000000001000000000000c6
:103454000000000000000000000000000000000068
:103464000000000000000000000000000000000058
:10347400ea980000258c0000b21700000d07000038
:103484000100000001000000000000000000000036
:103494000000000000000000000000000000000028
:1034a40000000000f0980000258c0000b217000016
:1034b4000d070000010000000200000000000000f1
:1034c40000000000000000000000000000000000f8
:1034d4000000000000000000f7980000258c0000a8
:1034e400b21700000d0700000100000004000000f6
:1034f40000000000000000000000000000000000c8
:10350400000000000000000000000000009900001e
:10351400258c0000b21700000d0700000100000018
:10352400080000000000000000000000000000008f
:103534000000000000000000000000000000000087
:103544000a990000258c0000b21700000d07000046
:103554000100000010000000000000000000000056
:103564000000000000000000000000000000000057
:103574000000000014990000258c0000b217000020
:103584000d07000001000000200000000000000002
:103594000000000000000000000000000000000027
:1035a40000000000000000001f990000258c0000ae
:1035b400b21700000d0700000100000040000000e9
:1035c40000000000000000000000000000000000f7
:1035d4000000000000000000000000002899000026
:1035e400258c0000b21700000d0700000100000048
:1035f4008000000000000000000000000000000047
:1036040000000000000000000000000000000000b6
:10361400118e0000258c0000000000000001000055
:103624000000000000000000000000000000000096
:103634000000000000000000000000000000000086
:1036440062aa00001b8e0000258c0000b017000049
:103654000a00000004000000000000000000000058
:103664000000000000000000000000000000000056
:10367400000000007aaa0000258e0000258c0000be
:10368400b01700000b000000040000000000000060
:103694000000000000000000000000000000000026
:1036a40000000000000000006eaa0000308e000040
:1036b400258c0000b01700000c000000040000007e
:1036c40000000000000000000000000000000000f6
:1036d40000000000000000002d530000746f000083
:1036e400702d0000003100002e4c000065760000b3
:1036f400656c0000696e000067000000312e000058
:103704005265000076690000657700000031000012
:103714002e4d000069640000646c000065310000f7
:10372400003100002e4d000069640000646c00004c
:1037340065320000003100002e4e00006f6d000065
:10374400696e0000616c0000003100002e5700001b
:103754006179000055700000003100002e57000010
:1037640061790000446f0000776e0000002d0000b6
:10377400526500006c650000766500006c20000056
:10378400557000002d000000322e00004c65000032
:10379400766500006c6900006e670000003200006e
:1037a4002e52000065760000696500007700000075
:1037b400322e00004d690000646400006c65000056
:1037c40031000000322e00004d69000064640000e6
:1037d4006c65000032000000322e00004e6f0000c5
:1037e4006d6900006e6100006c000000322e000064
:1037f400576100007955000070000000322e00006f
:1038040057610000794400006f7700006e000000eb
:103814002d520000657600006965000077200000e5
:10382400557000002d000000332e00004c65000090
:10383400766500006c6900006e67000000330000cc
:103844002e520000657600006965000077000000d4
:10385400332e00004d690000646400006c650000b4
:1038640031000000332e00004d6900006464000044
:103874006c65000032000000332e00004e6f000023
:103884006d6900006e6100006c000000332e0000c2
:10389400576100007955000070000000332e0000cd
:1038a40057610000794400006f7700006e0000004b
:1038b4002d4d000069640000646c00006531000057
:1038c40020550000702d0000003400002e4c000034
:1038d40065760000656c0000696e000067000000fa
:1038e400342e000052650000766900006577000000
:1038f400003400002e4d000069640000646c000078
:1039040065310000003400002e4d000069640000a1
:10391400646c000065320000003400002e4e00008c
:103924006f6d0000696e0000616c000000340000df
:103934002e5700006179000055700000003400002b
:103944002e57000061790000446f0000776e00007c
:10395400002d00004d690000646400006c650000e7
:1039640032200000557000002d000000352e0000ac
:103974004c650000766500006c6900006e6700000d
:10398400003500002e5200006576000069650000d5
:1039940077000000352e00004d69000064640000cb
:1039a4006c65000031000000352e00004d690000f8
:1039b400646400006c65000032000000352e0000d5
:1039c4004e6f00006d6900006e6100006c00000025
:1039d400352e00005761000079550000700000008a
:1039e400352e000057610000794400006f77000015
:1039f4006e0000002d4e00006f6d0000696e000027
:103a0400616c000020550000702d0000003600009d
:103a14002e4c000065760000656c0000696e0000a5
:103a240067000000362e0000526500007669000031
:103a340065770000003600002e4d00006964000028
:103a4400646c000065310000003600002e4d00005b
:103a540069640000646c00006532000000360000f8
:103a64002e4e00006f6d0000696e0000616c000056
:103a7400003600002e5700006179000055700000e8
:103a8400003600002e57000061790000446f0000ea
:103a9400776e0000002d0000526500006c65000088
:103aa400766500006c200000447700002d000000c3
:103ab400372e00004c650000766500006c6900003c
:103ac4006e670000003700002e520000657600008b
:103ad4006965000077000000372e00004d69000082
:103ae400646400006c65000031000000372e0000a3
:103af4004d690000646400006c6500003200000041
:103b0400372e00004e6f00006d6900006e610000ea
:103b14006c000000372e000057610000795500004a
:103b240070000000372e0000576100007944000047
:103b34006f7700006e0000002d52000065760000d3
:103b44006965000077200000447700002d00000024
:103b5400382e00004c650000766500006c6900009a
:103b64006e670000003800002e52000065760000e9
:103b74006965000077000000382e00004d690000e0
:103b8400646400006c65000031000000382e000001
:103b94004d690000646400006c65000032000000a0
:103ba400382e00004e6f00006d6900006e61000049
:103bb4006c000000382e00005761000079550000a9
:103bc40070000000382e00005761000079440000a6
:103bd4006f7700006e0000002d4d00006964000046
:103be400646c00006531000020440000772d000063
:103bf400003900002e4c000065760000656c000062
:103c0400696e000067000000392e00005265000054
:103c14007669000065770000003900002e4d000031
:103c240069640000646c0000653100000039000024
:103c34002e4d000069640000646c000065320000d1
:103c4400003900002e4e00006f6d0000696e000008
:103c5400616c0000003900002e57000061790000fb
:103c640055700000003900002e57000061790000f3
:103c7400446f0000776e0000002d00004d690000c5
:103c8400646400006c65000032200000447700008a
:103c94002d000000412e00004c65000076650000f8
:103ca4006c6900006e670000004100002e520000a5
:103cb400657600006965000077000000412e000071
:103cc4004d690000646400006c6500003100000070
:103cd400412e00004d690000646400006c65000022
:103ce40032000000412e00004e6f00006d6900009c
:103cf4006e6100006c000000412e0000576100005e
:103d04007955000070000000412e0000576100004a
:103d1400794400006f7700006e0000002d4e000013
:103d24006f6d0000696e0000616c000020440000ab
:103d3400772d0000004200002e4c00006576000044
:103d4400656c0000696e000067000000422e0000f0
:103d540052650000766900006577000000420000ab
:103d64002e4d000069640000646c000065310000a1
:103d7400004200002e4d000069640000646c0000e5
:103d840065320000004200002e4e00006f6d0000fe
:103d9400696e0000616c0000004200002e570000b4
:103da4006179000055700000004200002e570000a9
:103db40061790000446f0000776e0000000000008d
:103dc40000000000000000006e9b0000258c000035
:103dd40000000000000100000000000000000000de
:103de40000000000000000000000000000000000cf
:103df400000000000000000000000000759b0000af
:103e0400258c0000b41700000d060000010000001e
:103e1400400000000000000000000000000000005e
:103e2400000000000000000000000000000000008e
:103e3400809b0000258c0000b41700000d060000d4
:103e4400010000002000000000000000000000004d
:103e5400000000000000000000000000000000005e
:103e640000000000899b0000258c0000b4170000ae
:103e74000d0600000100000010000000000000001a
:103e8400000000000000000000000000000000002e
:103e94000000000000000000939b0000258c00003f
:103ea400b41700000d060000010000000800000027
:103eb40000000000000000000000000000000000fe
:103ec4000000000000000000000000009d9b0000b6
:103ed400258c0000b41700000d060000010000004e
:103ee40004000000000000000000000000000000ca
:103ef40000000000000000000000000000000000be
:103f0400a79b0000258c0000b41700000d060000dc
:103f1400010000000200000000000000000000009a
:103f2400000000000000000000000000000000008d
:103f340000000000af9b0000258c0000b4170000b7
:103f44000d06000001000000010000000000000058
:103f5400000000000000000000000000000000005d
:103f64000000000000000000b99b0000258c000048
:103f7400000000000001000000000000000000003c
:103f8400000000000000000000000000000000002d
:103f9400000000000000000000000000c69b0000bc
:103fa400258c0000b61700000d060000010000007b
:103fb40040000000000000000000000000000000bd
:103fc40000000000000000000000000000000000ed
:103fd400d19b0000258c0000b61700000d060000e0
:103fe40001000000200000000000000000000000ac
:103ff40000000000000000000000000000000000bd
:1040040000000000da9b0000258c0000b6170000b9
:104014000d06000001000000100000000000000078
:10402400000000000000000000000000000000008c
:104034000000000000000000e49b0000258c00004c
:10404400b61700000d060000010000000800000083
:10405400000000000000000000000000000000005c
:10406400000000000000000000000000ee9b0000c3
:10407400258c0000b61700000d06000001000000aa
:104084000400000000000000000000000000000028
:10409400000000000000000000000000000000001c
:1040a400f89b0000258c0000b61700000d060000e8
:1040b40001000000020000000000000000000000f9
:1040c40000000000000000000000000000000000ec
:1040d40000000000009c0000258c0000b6170000c2
:1040e4000d060000010000000100000000000000b7
:1040f40000000000000000000000000000000000bc
:1041040000000000000000000a9c0000258c000054
:10411400000000000001000000000000000000009a
:10412400000000000000000000000000000000008b
:10413400000000000000000000000000169c0000c9
:10414400258c0000b81700000d06000001000000d7
:10415400400000000000000000000000000000001b
:10416400000000000000000000000000000000004b
:10417400219c0000258c0000b81700000d060000eb
:10418400010000002000000000000000000000000a
:10419400000000000000000000000000000000001b
:1041a400000000002a9c0000258c0000b8170000c5
:1041b4000d060000010000001000000000000000d7
:1041c40000000000000000000000000000000000eb
:1041d4000000000000000000349c0000258c00005a
:1041e400b81700000d0600000100000008000000e0
:1041f40000000000000000000000000000000000bb
:104204000000000000000000000000003e9c0000d0
:10421400258c0000b81700000d0600000100000006
:104224000400000000000000000000000000000086
:10423400000000000000000000000000000000007a
:10424400489c0000258c0000b81700000d060000f3
:104254000100000002000000000000000000000057
:10426400000000000000000000000000000000004a
:1042740000000000509c0000258c0000b8170000ce
:104284000d06000001000000010000000000000015
:10429400000000000000000000000000000000001a
:1042a40000000000000000005a9c0000258c000063
:1042b40000000000000100000000000000000000f9
:1042c40000000000000000000000000000000000ea
:1042d400000000000000000000000000679c0000d7
:1042e400258c0000ba1700000d0600000100000034
:1042f400400000000000000000000000000000007a
:1043040000000000000000000000000000000000a9
:10431400729c0000258c0000ba1700000d060000f6
:104324000100000020000000000000000000000068
:104334000000000000000000000000000000000079
:10434400000000007b9c0000258c0000ba170000d0
:104354000d06000001000000100000000000000035
:104364000000000000000000000000000000000049
:104374000000000000000000859c0000258c000067
:10438400ba1700000d06000001000000080000003c
:104394000000000000000000000000000000000019
:1043a4000000000000000000000000008f9c0000de
:1043b400258c0000ba1700000d0600000100000063
:1043c40004000000000000000000000000000000e5
:1043d40000000000000000000000000000000000d9
:1043e400999c0000258c0000ba1700000d060000ff
:1043f40001000000020000000000000000000000b6
:1044040000000000000000000000000000000000a8
:1044140000000000a19c0000258c0000ba170000d9
:104424000d06000001000000010000000000000073
:104434000000000000000000000000000000000078
:104444000000000000000000ab9c0000258c000070
:10445400000000000d01000000000000000000004a
:104464000000000000000000000000000000000048
:10447400000000000000000000000000b89c0000e4
:10448400258c0000bc1700000d0600000100000090
:1044940040000000000000000000000000000000d8
:1044a4000000000000000000000000000000000008
:1044b400c39c0000258c0000bc1700000d06000002
:1044c40001000000200000000000000000000000c7
:1044d40000000000000000000000000000000000d8
:1044e40000000000cc9c0000258c0000bc170000dc
:1044f4000d06000001000000100000000000000094
:1045040000000000000000000000000000000000a7
:104514000000000000000000d69c0000258c000074
:10452400bc1700000d060000010000000800000098
:104534000000000000000000000000000000000077
:10454400000000000000000000000000e09c0000eb
:10455400258c0000bc1700000d06000001000000bf
:104564000400000000000000000000000000000043
:104574000000000000000000000000000000000037
:10458400ea9c0000258c0000bc1700000d0600000a
:104594000100000002000000000000000000000014
:1045a4000000000000000000000000000000000007
:1045b40000000000f29c0000258c0000bc170000e5
:1045c4000d060000010000000100000000000000d2
:1045d40000000000000000000000000000000000d7
:1045e4000000000000000000fc9c0000258c00007e
:1045f40000000000000100000000000000000000b6
:1046040000000000000000000000000000000000a6
:10461400000000000000000000000000099d0000f0
:10462400258c0000be1700000d06000001000000ec
:104634004000000000000000000000000000000036
:104644000000000000000000000000000000000066
:10465400149d0000258c0000be1700000d0600000c
:104664000100000020000000000000000000000025
:104674000000000000000000000000000000000036
:10468400000000001d9d0000258c0000be170000e6
:104694000d060000010000001000000000000000f2
:1046a4000000000000000000000000000000000006
:1046b4000000000000000000279d0000258c000081
:1046c400be1700000d0600000100000008000000f5
:1046d40000000000000000000000000000000000d6
:1046e400000000000000000000000000319d0000f8
:1046f400258c0000be1700000d060000010000001c
:1047040004000000000000000000000000000000a1
:104714000000000000000000000000000000000095
:104724003b9d0000258c0000be1700000d06000014
:104734000100000002000000000000000000000072
:104744000000000000000000000000000000000065
:1047540000000000439d0000258c0000be170000ef
:104764000d06000001000000010000000000000030
:104774000000000000000000000000000000000035
:1047840000000000000000004d9d0000258c00008a
:104794000000000000010000000000000000000014
:1047a4000000000000000000000000000000000005
:1047b4000000000000000000000000005a9d0000fe
:1047c400258c0000c01700000d0600000100000049
:1047d4004000000000000000000000000000000095
:1047e40000000000000000000000000000000000c5
:1047f400659d0000258c0000c01700000d06000018
:104804000100000020000000000000000000000083
:104814000000000000000000000000000000000094
:10482400000000006e9d0000258c0000c0170000f1
:104834000d06000001000000100000000000000050
:104844000000000000000000000000000000000064
:104854000000000000000000789d0000258c00008e
:10486400c01700000d060000010000000800000051
:104874000000000000000000000000000000000034
:10488400000000000000000000000000829d000005
:10489400258c0000c01700000d0600000100000078
:1048a4000400000000000000000000000000000000
:1048b40000000000000000000000000000000000f4
:1048c4008c9d0000258c0000c01700000d06000020
:1048d40001000000020000000000000000000000d1
:1048e40000000000000000000000000000000000c4
:1048f40000000000949d0000258c0000c0170000fb
:104904000d0600000100000001000000000000008e
:104914000000000000000000000000000000000093
:1049240000000000000000009e9d0000258c000097
:104934000000000000010000000000000000000072
:104944000000000000000000000000000000000063
:10495400000000000000000000000000aa9d00000c
:10496400258c0000c21700000d06000001000000a5
:1049740040000000000000000000000000000000f3
:104984000000000000000000000000000000000023
:10499400b59d0000258c0000c21700000d06000024
:1049a40001000000200000000000000000000000e2
:1049b40000000000000000000000000000000000f3
:1049c40000000000be9d0000258c0000c2170000fe
:1049d4000d060000010000001000000000000000af
:1049e40000000000000000000000000000000000c3
:1049f4000000000000000000c89d0000258c00009d
:104a0400c21700000d0600000100000008000000ad
:104a14000000000000000000000000000000000092
:104a2400000000000000000000000000d29d000013
:104a3400258c0000c21700000d06000001000000d4
:104a4400040000000000000000000000000000005e
:104a54000000000000000000000000000000000052
:104a6400dc9d0000258c0000c21700000d0600002c
:104a7400010000000200000000000000000000002f
:104a84000000000000000000000000000000000022
:104a940000000000e49d0000258c0000c217000007
:104aa4000d060000010000000100000000000000ed
:104ab40000000000000000000000000000000000f2
:104ac4000000000000000000ee9d0000258c0000a6
:104ad40000000000000100000000000000000000d1
:104ae40000000000000000000000000000000000c2
:104af400000000000000000000000000fb9d00001a
:104b0400258c0000c41700000d0600000100000001
:104b14004000000000000000000000000000000051
:104b24000000000000000000000000000000000081
:104b3400069e0000258c0000c41700000d0600002e
:104b44000100000020000000000000000000000040
:104b54000000000000000000000000000000000051
:104b6400000000000f9e0000258c0000c417000008
:104b74000d0600000100000010000000000000000d
:104b84000000000000000000000000000000000021
:104b94000000000000000000199e0000258c0000a9
:104ba400c41700000d06000001000000080000000a
:104bb40000000000000000000000000000000000f1
:104bc400000000000000000000000000239e000020
:104bd400258c0000c41700000d0600000100000031
:104be40004000000000000000000000000000000bd
:104bf40000000000000000000000000000000000b1
:104c04002d9e0000258c0000c41700000d06000036
:104c1400010000000100000000000000000000008e
:104c24000000000000000000000000000000000080
:104c340000000000359e0000258c0000c417000011
:104c44000d0600000100000001000000000000004b
:104c54000000000000000000000000000000000050
:104c640000000000000000003f9e0000258c0000b2
:104c7400000000000001000000000000000000002f
:104c84000000000000000000000000000000000020
:104c94000000000000000000000000004c9e000026
:104ca400258c0000c61700000d060000010000005e
:104cb40040000000000000000000000000000000b0
:104cc40000000000000000000000000000000000e0
:104cd400579e0000258c0000c61700000d0600003a
:104ce400010000002000000000000000000000009f
:104cf40000000000000000000000000000000000b0
:104d040000000000609e0000258c0000c617000013
:104d14000d0600000100000010000000000000006b
:104d2400000000000000000000000000000000007f
:104d340000000000000000006a9e0000258c0000b6
:104d4400c61700000d060000010000000800000066
:104d5400000000000000000000000000000000004f
:104d6400000000000000000000000000749e00002d
:104d7400258c0000c61700000d060000010000008d
:104d8400040000000000000000000000000000001b
:104d9400000000000000000000000000000000000f
:104da4007e9e0000258c0000c61700000d06000042
:104db40001000000020000000000000000000000ec
:104dc40000000000000000000000000000000000df
:104dd40000000000869e0000258c0000c61700001d
:104de4000d060000010000000100000000000000aa
:104df40000000000000000000000000000000000af
:104e04000000000000000000909e0000258c0000bf
:104e1400000000000001000000000000000000008d
:104e2400000000000000000000000000000000007e
:104e34000000000000000000000000009d9e000033
:104e4400258c0000c81700000d06000001000000ba
:104e5400400000000000000000000000000000000e
:104e6400000000000000000000000000000000003e
:104e7400a89e0000258c0000c81700000d06000045
:104e840001000000200000000000000000000000fd
:104e9400000000000000000000000000000000000e
:104ea40000000000b19e0000258c0000c81700001f
:104eb4000d060000010000001000000000000000ca
:104ec40000000000000000000000000000000000de
:104ed4000000000000000000bb9e0000258c0000c4
:104ee400c81700000d0600000100000008000000c3
:104ef40000000000000000000000000000000000ae
:104f0400000000000000000000000000c59e00003a
:104f1400258c0000c81700000d06000001000000e9
:104f24000400000000000000000000000000000079
:104f3400000000000000000000000000000000006d
:104f4400cf9e0000258c0000c81700000d0600004d
:104f5400010000000200000000000000000000004a
:104f6400000000000000000000000000000000003d
:104f740000000000d79e0000258c0000c817000028
:104f84000d06000001000000010000000000000008
:104f9400000000000000000000000000000000000d
:104fa4000000000000000000118e0000258c0000ad
:104fb40000000000000100000000000000000000ec
:104fc40000000000000000000000000000000000dd
:104fd400000000000000000062aa00001b8e000018
:104fe400258c0000b41700000a0000001600000021
:104ff40000000000000000000000000000000000ad
:105004000000000000000000000000007aaa000078
:10501400258e0000258c0000b41700000b00000052
:105024001600000000000000000000000000000066
:10503400000000000000000000000000000000006c
:105044006eaa0000308e0000258c0000b41700000a
:105054000c0000001600000000000000000000002a
:10506400000000000000000000000000000000003c
:105074005365000072690000616c0000426f00001b
:105084006172000064000000537400006174000049
:1050940075730000446f00006f720000004f000041
:1050a4007574000070750000747300000000000047
:1050b4005400000030000000000000000000000068
:1050c40000000000000000000000000000000000dc
:1050d40000000000000000000000000000000000cc
:1050e400000000000000000080c00000c0e00000dc
:1050f400f0f80000fcfe0000fefc0000f8f00000e8
:10510400f0f80000fcfe0000fefc0000f8f00000d7
:10511400e0e00000e0e00000e0e00000e0e000008b
:10512400e0e00000e0e00000e0c00000808000005b
:10513400000000000000000000000000000000006b
:10514400000000000000000000000000000000005b
:10515400000000000000000000000000000000004b
:10516400000000000000000000000000000000003b
:1051740000000000000000000000000000800000ab
:10518400818200008408000000f00000feff00009f
:10519400ffff0000ff3f00003f3f00000707000043
:1051a400073f00003f3f0000ffff0000ffff00003b
:1051b400ffff0000ffff0000ffff00003f1f000093
:1051c4001f3f0000f3e10000e1f300003f1f000077
:1051d4001f3f0000ffff0000fffe0000f080000002
:1051e40000000000000000000000000000000000bb
:1051f40000000000000000000000000000000000ab
:10520400000000000000000000000000000000009a
:10521400000000000000000000000000000000008a
:10522400000000000000000020100000080400003e
:10523400000300000f3f00007fff0000fffe00009e
:10524400fefe0000f0f00000f0fe0000fefe000094
:10525400ffff0000ffff0000ffff0000ffff000052
:10526400ffff0000fffe0000feff0000f3e100006e
:10527400e1f30000fffe0000feff0000ff7f0000de
:105284003f0f00008fcf0000dfff0000fffe000093
:10529400fefc0000f8e00000000000000000000038
:1052a40000000000000000000000000000000000fa
:1052b40000000000000000000000000000000000ea
:1052c40000000000000000000000000000000000da
:1052d40000000000000000000000000000000000ca
:1052e40000000000000100000303000003030000ad
:1052f4000303000001030000030300000303000094
:105304000301000001010000010300000303000089
:105314000303000003030000030300000303000071
:105324000100000000000000000700000f0f000053
:105334001f1f00001f0f00000707000001000000ee
:105344000000000000000000000000000000000059
:1053540000000000000000000000000000f0000059
:10536400f83c0000cec70000c3c30000c7c600005d
:10537400c0000000c0e000007030000030f0000009
:10538400f0000000f0f00000e0300000f0f0000059
:10539400e0300000f0e0000000c00000e070000019
:1053a40030b00000f0e00000000000000000000049
:1053b40000c00000f03c00000f03000000c000002b
:1053c400f03c00000f03000000f00000fc3e000071
:1053d4000f0300000307000006000000c0e0000007
:1053e4007030000030f00000f000000030300000a9
:1053f400fefe00003030000000000000000000004d
:1054040000000000000700000f1c00001818000036
:10541400181c00000e070000010000000f1f000010
:1054240018180000180f00001f1000001f1f0000b4
:10543400000000001f1f0000000000001f1f0000ec
:10544400000700000f1f0000191900001c0c0000c9
:1054540000000000303c00000f03000000000000ca
:10546400303c00000f0300000000000000000000ba
:10547400000700000f1c0000181800001c0e00009c
:10548400060000000f1f000018180000180f00008d
:105494001f100000000000000f1f0000181800007b
:1054a4000c0c0000000000000800000008000000d0
:1054b40038440000443800001018000010180000a0
:1054c4000800000008000000040600003f26000059
:1054d4002420000000000000080000000800000074
:1054e4007e47000043430000437f000000000000ab
:1054f40008000000080000001c22000001790000e0
:10550400012200001c000000080000000800000048
:1055140040400000484c00007e0c000008000000e1
:10552400080000000800000070c80000cccc000097
:10553400fccc0000cc0000000800000008000000c3
:10554400080c00000e0f00000e0c00000800000004
:10555400080000000800000001030000070f00001d
:10556400070300000100000008000000080000001c
:10557400081c00003e0000000000000000000000c5
:105584000800000008000000003e00001c080000a5
:1055940000000000000000000800000008000000f7
:1055a400080c00000e7f00000e0c00000800000034
:1055b400080000000800000008180000387f000000
